{
  "contractName": "LabReport",
  "abi": [
    {
      "inputs": [],
      "payable": false,
      "stateMutability": "nonpayable",
      "type": "constructor"
    },
    {
      "constant": false,
      "inputs": [
        {
          "internalType": "string",
          "name": "_report_time",
          "type": "string"
        },
        {
          "internalType": "string",
          "name": "enc_id",
          "type": "string"
        },
        {
          "internalType": "address",
          "name": "provider",
          "type": "address"
        },
        {
          "internalType": "string",
          "name": "_title",
          "type": "string"
        },
        {
          "internalType": "string",
          "name": "_json",
          "type": "string"
        }
      ],
      "name": "setLabReportrData",
      "outputs": [],
      "payable": false,
      "stateMutability": "nonpayable",
      "type": "function"
    },
    {
      "constant": true,
      "inputs": [
        {
          "internalType": "string",
          "name": "enc_id",
          "type": "string"
        }
      ],
      "name": "getLabReportData",
      "outputs": [
        {
          "internalType": "string",
          "name": "",
          "type": "string"
        },
        {
          "internalType": "string",
          "name": "",
          "type": "string"
        },
        {
          "internalType": "string",
          "name": "",
          "type": "string"
        }
      ],
      "payable": false,
      "stateMutability": "view",
      "type": "function"
    }
  ],
  "bytecode": "0x6080604052600060025534801561001557600080fd5b5033600160006101000a81548173ffffffffffffffffffffffffffffffffffffffff021916908373ffffffffffffffffffffffffffffffffffffffff160217905550611275806100666000396000f3fe608060405234801561001057600080fd5b50600436106100365760003560e01c8063bb9ffcce1461003b578063c8a3b7cd14610247575b600080fd5b6100f46004803603602081101561005157600080fd5b810190808035906020019064010000000081111561006e57600080fd5b82018360208201111561008057600080fd5b803590602001918460018302840111640100000000831117156100a257600080fd5b91908080601f016020809104026020016040519081016040528093929190818152602001838380828437600081840152601f19601f8201169050808301925050505050505091929192905050506104e7565b60405180806020018060200180602001848103845287818151815260200191508051906020019080838360005b8381101561013c578082015181840152602081019050610121565b50505050905090810190601f1680156101695780820380516001836020036101000a031916815260200191505b50848103835286818151815260200191508051906020019080838360005b838110156101a2578082015181840152602081019050610187565b50505050905090810190601f1680156101cf5780820380516001836020036101000a031916815260200191505b50848103825285818151815260200191508051906020019080838360005b838110156102085780820151818401526020810190506101ed565b50505050905090810190601f1680156102355780820380516001836020036101000a031916815260200191505b50965050505050505060405180910390f35b6104e5600480360360a081101561025d57600080fd5b810190808035906020019064010000000081111561027a57600080fd5b82018360208201111561028c57600080fd5b803590602001918460018302840111640100000000831117156102ae57600080fd5b91908080601f016020809104026020016040519081016040528093929190818152602001838380828437600081840152601f19601f8201169050808301925050505050505091929192908035906020019064010000000081111561031157600080fd5b82018360208201111561032357600080fd5b8035906020019184600183028401116401000000008311171561034557600080fd5b91908080601f016020809104026020016040519081016040528093929190818152602001838380828437600081840152601f19601f820116905080830192505050505050509192919290803573ffffffffffffffffffffffffffffffffffffffff169060200190929190803590602001906401000000008111156103c857600080fd5b8201836020820111156103da57600080fd5b803590602001918460018302840111640100000000831117156103fc57600080fd5b91908080601f016020809104026020016040519081016040528093929190818152602001838380828437600081840152601f19601f8201169050808301925050505050505091929192908035906020019064010000000081111561045f57600080fd5b82018360208201111561047157600080fd5b8035906020019184600183028401116401000000008311171561049357600080fd5b91908080601f016020809104026020016040519081016040528093929190818152602001838380828437600081840152601f19601f82011690508083019250505050505050919291929050505061080b565b005b60608060606000846040518082805190602001908083835b6020831061052257805182526020820191506020810190506020830392506104ff565b6001836020036101000a038019825116818451168082178552505050505050905001915050908152602001604051809103902060040160405160200180828054600181600116156101000203166002900480156105b65780601f106105945761010080835404028352918201916105b6565b820191906000526020600020905b8154815290600101906020018083116105a2575b5050807f5d000000000000000000000000000000000000000000000000000000000000008152506001019150506040516020818303038152906040526000856040518082805190602001908083835b602083106106285780518252602082019150602081019050602083039250610605565b6001836020036101000a038019825116818451168082178552505050505050905001915050908152602001604051809103902060030160405160200180828054600181600116156101000203166002900480156106bc5780601f1061069a5761010080835404028352918201916106bc565b820191906000526020600020905b8154815290600101906020018083116106a8575b5050807f5d000000000000000000000000000000000000000000000000000000000000008152506001019150506040516020818303038152906040526000866040518082805190602001908083835b6020831061072e578051825260208201915060208101905060208303925061070b565b6001836020036101000a038019825116818451168082178552505050505050905001915050908152602001604051809103902060050160405160200180828054600181600116156101000203166002900480156107c25780601f106107a05761010080835404028352918201916107c2565b820191906000526020600020905b8154815290600101906020018083116107ae575b5050807f5d000000000000000000000000000000000000000000000000000000000000008152506001019150506040516020818303038152906040529250925092509193909250565b600080856040518082805190602001908083835b60208310610842578051825260208201915060208101905060208303925061081f565b6001836020036101000a03801982511681845116808217855250505050505090500191505090815260200160405180910390209050838160020160006101000a81548173ffffffffffffffffffffffffffffffffffffffff021916908373ffffffffffffffffffffffffffffffffffffffff1602179055506002548160000181905550848160010190805190602001906108dd92919061119b565b50604051602001806000019050604051602081830303815290604052805190602001208160050160405160200180828054600181600116156101000203166002900480156109625780601f10610940576101008083540402835291820191610962565b820191906000526020600020905b81548152906001019060200180831161094e575b5050915050604051602081830303815290604052805190602001201415610ab7576040518060400160405280600181526020017f5b000000000000000000000000000000000000000000000000000000000000008152508160040190805190602001906109d092919061119b565b5080600401836040516020018083805460018160011615610100020316600290048015610a345780601f10610a12576101008083540402835291820191610a34565b820191906000526020600020905b815481529060010190602001808311610a20575b505082805190602001908083835b60208310610a655780518252602082019150602081019050602083039250610a42565b6001836020036101000a03801982511681845116808217855250505050505090500192505050604051602081830303815290604052816004019080519060200190610ab192919061119b565b50610bc1565b80600401836040516020018083805460018160011615610100020316600290048015610b1a5780601f10610af8576101008083540402835291820191610b1a565b820191906000526020600020905b815481529060010190602001808311610b06575b5050807f2c0000000000000000000000000000000000000000000000000000000000000081525060010182805190602001908083835b60208310610b735780518252602082019150602081019050602083039250610b50565b6001836020036101000a03801982511681845116808217855250505050505090500192505050604051602081830303815290604052816005019080519060200190610bbf92919061119b565b505b60405160200180600001905060405160208183030381529060405280519060200120816005016040516020018082805460018160011615610100020316600290048015610c455780601f10610c23576101008083540402835291820191610c45565b820191906000526020600020905b815481529060010190602001808311610c31575b5050915050604051602081830303815290604052805190602001201415610d9a576040518060400160405280600181526020017f5b00000000000000000000000000000000000000000000000000000000000000815250816005019080519060200190610cb392919061119b565b5080600501826040516020018083805460018160011615610100020316600290048015610d175780601f10610cf5576101008083540402835291820191610d17565b820191906000526020600020905b815481529060010190602001808311610d03575b505082805190602001908083835b60208310610d485780518252602082019150602081019050602083039250610d25565b6001836020036101000a03801982511681845116808217855250505050505090500192505050604051602081830303815290604052816005019080519060200190610d9492919061119b565b50610ea4565b80600501826040516020018083805460018160011615610100020316600290048015610dfd5780601f10610ddb576101008083540402835291820191610dfd565b820191906000526020600020905b815481529060010190602001808311610de9575b5050807f2c0000000000000000000000000000000000000000000000000000000000000081525060010182805190602001908083835b60208310610e565780518252602082019150602081019050602083039250610e33565b6001836020036101000a03801982511681845116808217855250505050505090500192505050604051602081830303815290604052816005019080519060200190610ea292919061119b565b505b60405160200180600001905060405160208183030381529060405280519060200120816003016040516020018082805460018160011615610100020316600290048015610f285780601f10610f06576101008083540402835291820191610f28565b820191906000526020600020905b815481529060010190602001808311610f14575b505091505060405160208183030381529060405280519060200120141561107d576040518060400160405280600181526020017f5b00000000000000000000000000000000000000000000000000000000000000815250816003019080519060200190610f9692919061119b565b5080600301866040516020018083805460018160011615610100020316600290048015610ffa5780601f10610fd8576101008083540402835291820191610ffa565b820191906000526020600020905b815481529060010190602001808311610fe6575b505082805190602001908083835b6020831061102b5780518252602082019150602081019050602083039250611008565b6001836020036101000a0380198251168184511680821785525050505050509050019250505060405160208183030381529060405281600301908051906020019061107792919061119b565b50611187565b806003018660405160200180838054600181600116156101000203166002900480156110e05780601f106110be5761010080835404028352918201916110e0565b820191906000526020600020905b8154815290600101906020018083116110cc575b5050807f2c0000000000000000000000000000000000000000000000000000000000000081525060010182805190602001908083835b602083106111395780518252602082019150602081019050602083039250611116565b6001836020036101000a0380198251168184511680821785525050505050509050019250505060405160208183030381529060405281600501908051906020019061118592919061119b565b505b600160025401600281905550505050505050565b828054600181600116156101000203166002900490600052602060002090601f016020900481019282601f106111dc57805160ff191683800117855561120a565b8280016001018555821561120a579182015b828111156112095782518255916020019190600101906111ee565b5b509050611217919061121b565b5090565b61123d91905b80821115611239576000816000905550600101611221565b5090565b9056fea265627a7a72315820f4bc0a54f6e4257b3de7fe9008442d2520081c46babde6125625c085dca8188564736f6c63430005100032",
  "source": "pragma solidity >=0.4.22 <0.6.0;\n//pragma experimental ABIEncoderV2;\n//import \"github.com/Arachnid/solidity-stringutils/strings.sol\";\n\ncontract LabReport {\n   \n   \n    struct LabReportStruct {\n        uint uid;\n        string encounter_id;\n\n        address provider;\n        // string medicine;\n        string report_time_JSON_Data;\n        string report_title_JSON_Data;\n        string description_JSON_Data;\n    }\n   \n    mapping (string => LabReportStruct) private LabReportData;\n    // string[] public PatientCNIC;\n    address private owner;\n  \n   uint private index = 0;\n    constructor() public {\n        owner = msg.sender;\n    }\n    \n \n    \n    function setLabReportrData(string memory _report_time,string memory enc_id,address provider,string memory _title,string memory _json) public{\n     \n       LabReportStruct storage labreport = LabReportData[enc_id];\n       \n        // LabReport.heathcare_professional.push(heathcare_professional);\n        // labreport.report_time =  _report_time;\n        labreport.provider = provider;\n        labreport.uid = index;\n        labreport.encounter_id = enc_id;\n\n  \n        if(keccak256(abi.encodePacked(labreport.description_JSON_Data)) == keccak256(abi.encodePacked(\"\"))){\n          // return (\"true\")\n            labreport.report_title_JSON_Data = \"[\";\n            labreport.report_title_JSON_Data = string(abi.encodePacked(labreport.report_title_JSON_Data,_title));\n        }else {\n                    labreport.description_JSON_Data = string(abi.encodePacked(labreport.report_title_JSON_Data,\",\",_title));\n        }\n        \n        if(keccak256(abi.encodePacked(labreport.description_JSON_Data)) == keccak256(abi.encodePacked(\"\"))){\n          // return (\"true\")\n            labreport.description_JSON_Data = \"[\";\n            labreport.description_JSON_Data = string(abi.encodePacked(labreport.description_JSON_Data,_json));\n        }else {\n                    labreport.description_JSON_Data = string(abi.encodePacked(labreport.description_JSON_Data,\",\",_json));\n        }\n        \n        if(keccak256(abi.encodePacked(labreport.report_time_JSON_Data)) == keccak256(abi.encodePacked(\"\"))){\n          // return (\"true\")\n            labreport.report_time_JSON_Data = \"[\";\n            labreport.report_time_JSON_Data = string(abi.encodePacked(labreport.report_time_JSON_Data,_report_time));\n        }else {\n                    labreport.description_JSON_Data = string(abi.encodePacked(labreport.report_time_JSON_Data,\",\",_report_time));\n        }\n\n        index = index + 1;\n\n    }\n    function getLabReportData(string memory enc_id ) public view returns(string memory, string memory, string memory){\n            \n        return (string(abi.encodePacked(LabReportData[enc_id].report_title_JSON_Data,\"]\")),string(abi.encodePacked(LabReportData[enc_id].report_time_JSON_Data,\"]\")),string(abi.encodePacked(LabReportData[enc_id].description_JSON_Data,\"]\")));\n    }\n    \n    \n    \n    \n   \n}",
  "sourcePath": "/opt/bitnami/apache2/htdocs/apis/FYP-Blockchain-And-Health/NodeApis/contracts/LabReport.sol",
  "compiler": {
    "name": "solc",
    "version": "0.5.16+commit.9c3226ce.Emscripten.clang"
  },
  "schemaVersion": "3.2.0",
  "updatedAt": "2020-06-06T15:55:12.622Z",
  "networkType": "ethereum",
  "devdoc": {
    "methods": {}
  },
  "userdoc": {
    "methods": {}
  }
}