{
  "contractName": "MedicalEncounter",
  "abi": [
    {
      "inputs": [],
      "payable": false,
      "stateMutability": "nonpayable",
      "type": "constructor"
    },
    {
      "constant": false,
      "inputs": [
        {
          "internalType": "string",
          "name": "heathcare_professional",
          "type": "string"
        },
        {
          "internalType": "string",
          "name": "encounter_time",
          "type": "string"
        },
        {
          "internalType": "string",
          "name": "patientCnic",
          "type": "string"
        },
        {
          "internalType": "string",
          "name": "details",
          "type": "string"
        },
        {
          "internalType": "address",
          "name": "provider",
          "type": "address"
        },
        {
          "internalType": "string",
          "name": "_json",
          "type": "string"
        }
      ],
      "name": "setEncounterData",
      "outputs": [],
      "payable": false,
      "stateMutability": "nonpayable",
      "type": "function"
    },
    {
      "constant": true,
      "inputs": [
        {
          "internalType": "string",
          "name": "_PatientCNIC",
          "type": "string"
        }
      ],
      "name": "getEncounterData",
      "outputs": [
        {
          "internalType": "string",
          "name": "",
          "type": "string"
        }
      ],
      "payable": false,
      "stateMutability": "view",
      "type": "function"
    },
    {
      "constant": true,
      "inputs": [
        {
          "internalType": "string",
          "name": "_PatientCNIC",
          "type": "string"
        }
      ],
      "name": "getEncounterIndex",
      "outputs": [
        {
          "internalType": "string",
          "name": "",
          "type": "string"
        }
      ],
      "payable": false,
      "stateMutability": "view",
      "type": "function"
    },
    {
      "constant": true,
      "inputs": [],
      "name": "getIndex",
      "outputs": [
        {
          "internalType": "uint256",
          "name": "",
          "type": "uint256"
        }
      ],
      "payable": false,
      "stateMutability": "view",
      "type": "function"
    },
    {
      "constant": true,
      "inputs": [
        {
          "internalType": "string",
          "name": "patientCnic",
          "type": "string"
        },
        {
          "internalType": "string",
          "name": "_time",
          "type": "string"
        },
        {
          "internalType": "string",
          "name": "_dr_name",
          "type": "string"
        },
        {
          "internalType": "string",
          "name": "_details",
          "type": "string"
        }
      ],
      "name": "getDataForPrescription",
      "outputs": [
        {
          "internalType": "string",
          "name": "",
          "type": "string"
        }
      ],
      "payable": false,
      "stateMutability": "view",
      "type": "function"
    }
  ],
  "bytecode": "0x6080604052600060035534801561001557600080fd5b5033600260006101000a81548173ffffffffffffffffffffffffffffffffffffffff021916908373ffffffffffffffffffffffffffffffffffffffff160217905550611618806100666000396000f3fe608060405234801561001057600080fd5b50600436106100575760003560e01c8063280ca2e71461005c57806381045ead146101905780638f674473146101ae578063ca3550e3146104a7578063dddc19fc146107de575b600080fd5b6101156004803603602081101561007257600080fd5b810190808035906020019064010000000081111561008f57600080fd5b8201836020820111156100a157600080fd5b803590602001918460018302840111640100000000831117156100c357600080fd5b91908080601f016020809104026020016040519081016040528093929190818152602001838380828437600081840152601f19601f820116905080830192505050505050509192919290505050610912565b6040518080602001828103825283818151815260200191508051906020019080838360005b8381101561015557808201518184015260208101905061013a565b50505050905090810190601f1680156101825780820380516001836020036101000a031916815260200191505b509250505060405180910390f35b610198610a21565b6040518082815260200191505060405180910390f35b61042c600480360360808110156101c457600080fd5b81019080803590602001906401000000008111156101e157600080fd5b8201836020820111156101f357600080fd5b8035906020019184600183028401116401000000008311171561021557600080fd5b91908080601f016020809104026020016040519081016040528093929190818152602001838380828437600081840152601f19601f8201169050808301925050505050505091929192908035906020019064010000000081111561027857600080fd5b82018360208201111561028a57600080fd5b803590602001918460018302840111640100000000831117156102ac57600080fd5b91908080601f016020809104026020016040519081016040528093929190818152602001838380828437600081840152601f19601f8201169050808301925050505050505091929192908035906020019064010000000081111561030f57600080fd5b82018360208201111561032157600080fd5b8035906020019184600183028401116401000000008311171561034357600080fd5b91908080601f016020809104026020016040519081016040528093929190818152602001838380828437600081840152601f19601f820116905080830192505050505050509192919290803590602001906401000000008111156103a657600080fd5b8201836020820111156103b857600080fd5b803590602001918460018302840111640100000000831117156103da57600080fd5b91908080601f016020809104026020016040519081016040528093929190818152602001838380828437600081840152601f19601f820116905080830192505050505050509192919290505050610a2b565b6040518080602001828103825283818151815260200191508051906020019080838360005b8381101561046c578082015181840152602081019050610451565b50505050905090810190601f1680156104995780820380516001836020036101000a031916815260200191505b509250505060405180910390f35b6107dc600480360360c08110156104bd57600080fd5b81019080803590602001906401000000008111156104da57600080fd5b8201836020820111156104ec57600080fd5b8035906020019184600183028401116401000000008311171561050e57600080fd5b91908080601f016020809104026020016040519081016040528093929190818152602001838380828437600081840152601f19601f8201169050808301925050505050505091929192908035906020019064010000000081111561057157600080fd5b82018360208201111561058357600080fd5b803590602001918460018302840111640100000000831117156105a557600080fd5b91908080601f016020809104026020016040519081016040528093929190818152602001838380828437600081840152601f19601f8201169050808301925050505050505091929192908035906020019064010000000081111561060857600080fd5b82018360208201111561061a57600080fd5b8035906020019184600183028401116401000000008311171561063c57600080fd5b91908080601f016020809104026020016040519081016040528093929190818152602001838380828437600081840152601f19601f8201169050808301925050505050505091929192908035906020019064010000000081111561069f57600080fd5b8201836020820111156106b157600080fd5b803590602001918460018302840111640100000000831117156106d357600080fd5b91908080601f016020809104026020016040519081016040528093929190818152602001838380828437600081840152601f19601f820116905080830192505050505050509192919290803573ffffffffffffffffffffffffffffffffffffffff1690602001909291908035906020019064010000000081111561075657600080fd5b82018360208201111561076857600080fd5b8035906020019184600183028401116401000000008311171561078a57600080fd5b91908080601f016020809104026020016040519081016040528093929190818152602001838380828437600081840152601f19601f820116905080830192505050505050509192919290505050610f10565b005b610897600480360360208110156107f457600080fd5b810190808035906020019064010000000081111561081157600080fd5b82018360208201111561082357600080fd5b8035906020019184600183028401116401000000008311171561084557600080fd5b91908080601f016020809104026020016040519081016040528093929190818152602001838380828437600081840152601f19601f82011690508083019250505050505050919291929050505061140e565b6040518080602001828103825283818151815260200191508051906020019080838360005b838110156108d75780820151818401526020810190506108bc565b50505050905090810190601f1680156109045780820380516001836020036101000a031916815260200191505b509250505060405180910390f35b60606000826040518082805190602001908083835b6020831061094a5780518252602082019150602081019050602083039250610927565b6001836020036101000a038019825116818451168082178552505050505050905001915050908152602001604051809103902060070160405160200180828054600181600116156101000203166002900480156109de5780601f106109bc5761010080835404028352918201916109de565b820191906000526020600020905b8154815290600101906020018083116109ca575b5050807f5d000000000000000000000000000000000000000000000000000000000000008152506001019150506040516020818303038152906040529050919050565b6000600354905090565b6060600080866040518082805190602001908083835b60208310610a645780518252602082019150602081019050602083039250610a41565b6001836020036101000a0380198251168184511680821785525050505050509050019150509081526020016040518091039020905060008090505b8160000180549050811015610eea57856040516020018082805190602001908083835b60208310610ae55780518252602082019150602081019050602083039250610ac2565b6001836020036101000a03801982511681845116808217855250505050505090500191505060405160208183030381529060405280519060200120826002018281548110610b2f57fe5b906000526020600020016040516020018082805460018160011615610100020316600290048015610b975780601f10610b75576101008083540402835291820191610b97565b820191906000526020600020905b815481529060010190602001808311610b83575b5050915050604051602081830303815290604052805190602001201415610edd57846040516020018082805190602001908083835b60208310610bef5780518252602082019150602081019050602083039250610bcc565b6001836020036101000a03801982511681845116808217855250505050505090500191505060405160208183030381529060405280519060200120826001018281548110610c3957fe5b906000526020600020016040516020018082805460018160011615610100020316600290048015610ca15780601f10610c7f576101008083540402835291820191610ca1565b820191906000526020600020905b815481529060010190602001808311610c8d575b5050915050604051602081830303815290604052805190602001201415610edc57836040516020018082805190602001908083835b60208310610cf95780518252602082019150602081019050602083039250610cd6565b6001836020036101000a03801982511681845116808217855250505050505090500191505060405160208183030381529060405280519060200120826004018281548110610d4357fe5b906000526020600020016040516020018082805460018160011615610100020316600290048015610dab5780601f10610d89576101008083540402835291820191610dab565b820191906000526020600020905b815481529060010190602001808311610d97575b5050915050604051602081830303815290604052805190602001201415610edb576000876040518082805190602001908083835b60208310610e025780518252602082019150602081019050602083039250610ddf565b6001836020036101000a03801982511681845116808217855250505050505090500191505090815260200160405180910390206007016040516020018082805460018160011615610100020316600290048015610e965780601f10610e74576101008083540402835291820191610e96565b820191906000526020600020905b815481529060010190602001808311610e82575b5050807f5d0000000000000000000000000000000000000000000000000000000000000081525060010191505060405160208183030381529060405292505050610f08565b5b5b8080600101915050610a9f565b506040518060600160405280602181526020016115c3602191399150505b949350505050565b600080856040518082805190602001908083835b60208310610f475780518252602082019150602081019050602083039250610f24565b6001836020036101000a0380198251168184511680821785525050505050509050019150509081526020016040518091039020905080600101879080600181540180825580915050906001820390600052602060002001600090919290919091509080519060200190610fbb92919061151d565b505080600201869080600181540180825580915050906001820390600052602060002001600090919290919091509080519060200190610ffc92919061151d565b50508060040184908060018154018082558091505090600182039060005260206000200160009091929091909150908051906020019061103d92919061151d565b5050806006018390806001815401808255809150509060018203906000526020600020016000909192909190916101000a81548173ffffffffffffffffffffffffffffffffffffffff021916908373ffffffffffffffffffffffffffffffffffffffff160217905550508060000160035490806001815401808255809150509060018203906000526020600020016000909192909190915055506040516020018060000190506040516020818303038152906040528051906020012081600701604051602001808280546001816001161561010002031660029004801561115b5780601f1061113957610100808354040283529182019161115b565b820191906000526020600020905b815481529060010190602001808311611147575b50509150506040516020818303038152906040528051906020012014156112b0576040518060400160405280600181526020017f5b000000000000000000000000000000000000000000000000000000000000008152508160070190805190602001906111c992919061151d565b508060070182604051602001808380546001816001161561010002031660029004801561122d5780601f1061120b57610100808354040283529182019161122d565b820191906000526020600020905b815481529060010190602001808311611219575b505082805190602001908083835b6020831061125e578051825260208201915060208101905060208303925061123b565b6001836020036101000a038019825116818451168082178552505050505050905001925050506040516020818303038152906040528160070190805190602001906112aa92919061151d565b506113ba565b806007018260405160200180838054600181600116156101000203166002900480156113135780601f106112f1576101008083540402835291820191611313565b820191906000526020600020905b8154815290600101906020018083116112ff575b5050807f2c0000000000000000000000000000000000000000000000000000000000000081525060010182805190602001908083835b6020831061136c5780518252602082019150602081019050602083039250611349565b6001836020036101000a038019825116818451168082178552505050505050905001925050506040516020818303038152906040528160070190805190602001906113b892919061151d565b505b600160035401600381905550600185908060018154018082558091505090600182039060005260206000200160009091929091909150908051906020019061140392919061151d565b505050505050505050565b60606000826040518082805190602001908083835b602083106114465780518252602082019150602081019050602083039250611423565b6001836020036101000a038019825116818451168082178552505050505050905001915050908152602001604051809103902060070160405160200180828054600181600116156101000203166002900480156114da5780601f106114b85761010080835404028352918201916114da565b820191906000526020600020905b8154815290600101906020018083116114c6575b5050807f5d000000000000000000000000000000000000000000000000000000000000008152506001019150506040516020818303038152906040529050919050565b828054600181600116156101000203166002900490600052602060002090601f016020900481019282601f1061155e57805160ff191683800117855561158c565b8280016001018555821561158c579182015b8281111561158b578251825591602001919060010190611570565b5b509050611599919061159d565b5090565b6115bf91905b808211156115bb5760008160009055506001016115a3565b5090565b9056fe7b22726573756c7420223a20224e6f20656e636f756e74657220666f756e64227da265627a7a72315820a7a45096035f81bde774f0ead84ba60261cadde80accc6b18525dd2c447ea43964736f6c63430005100032",
  "source": "pragma solidity >=0.4.22 <0.6.0;\n//pragma experimental ABIEncoderV2;\n//import \"github.com/Arachnid/solidity-stringutils/strings.sol\";\n\ncontract MedicalEncounter {\n   \n   \n    struct MedicalEnconterStruct {\n        uint[] uid;\n        string[] heathcare_professional;\n        string[] encounter_time;\n        address[] Patient;\n        string[] details;\n        string[] enc_time;\n        address[] provider;\n        string JSON_Data;\n    }\n   \n    mapping (string => MedicalEnconterStruct) private MedicalEncounters;\n    string[] private PatientCNIC;\n    address private owner;\n  \n   uint index = 0;\n    constructor() public {\n        owner = msg.sender;\n    }\n    \n    // function uint2str(uint i) internal pure returns (string memory){ \n    //     if (i == 0) return \"0\"; \n    //     uint j = i; uint length; \n    //     while (j != 0){ \n    //         length++; j /= 10; \n            \n    //     } \n    //     bytes memory bstr = new bytes(length); \n    //     uint k = length - 1; \n    //     while (i != 0){ \n    //         // bstr[k--] = byte(48 + i % 10); i /= 10; \n    //         bstr[k--] = byte(uint8(48 + i % 10)); \n            \n    //     } \n    //     return string(bstr); \n        \n    // } \n    \n    function setEncounterData(string memory heathcare_professional,string memory encounter_time,string memory patientCnic,string memory details,address provider,string memory _json) public{\n     \n       MedicalEnconterStruct storage medicalencounter = MedicalEncounters[patientCnic];\n       \n        medicalencounter.heathcare_professional.push(heathcare_professional);\n        medicalencounter.encounter_time.push( encounter_time);\n        medicalencounter.details.push(details);\n        medicalencounter.provider.push(provider);\n        medicalencounter.uid.push(index);\n\n  \n        if(keccak256(abi.encodePacked(medicalencounter.JSON_Data)) == keccak256(abi.encodePacked(\"\"))){\n          // return (\"true\")\n           medicalencounter.JSON_Data = \"[\";\n              medicalencounter.JSON_Data = string(abi.encodePacked(medicalencounter.JSON_Data,_json));\n        }else {\n                    //medicalencounter.JSON_Data = medicalencounter.JSON_Data +  _json;\n                    //medicalencounter.JSON_Data = medicalencounter.JSON_Data.toSlice().concat(_json.toSlice());\n                    medicalencounter.JSON_Data = string(abi.encodePacked(medicalencounter.JSON_Data,\",\",_json));\n        }\n        \n        // medicalencounter.JSON_Data = string(abi.encodePacked(medicalencounter.JSON_Data));\n    //medicalencounter.JSON_Data = _json;\n        index = index + 1;\n        PatientCNIC.push(patientCnic);\n    }\n    function getEncounterData(string memory _PatientCNIC ) public view returns(string memory){\n            \n        return (string(abi.encodePacked(MedicalEncounters[_PatientCNIC].JSON_Data,\"]\")));\n    }\n    \n    function getEncounterIndex(string memory _PatientCNIC ) public view returns(string memory){\n        \n        return (string(abi.encodePacked(MedicalEncounters[_PatientCNIC].JSON_Data,\"]\")));\n    }\n    function getIndex() public view returns(uint){\n        \n        return (index);\n    }\n    function getDataForPrescription(string memory patientCnic,string memory _time,string memory _dr_name, string memory _details) public view returns(string memory){\n        MedicalEnconterStruct storage medicalencounter = MedicalEncounters[patientCnic];\n        // return (medicalencounter.encounter_time[0],medicalencounter.uid.length);\n        for (uint i=0; i < medicalencounter.uid.length; i++) {\n            // emit LogStudentGrade(studentList[i], studentStructs[studentList[i]].grade);\n            if(keccak256(abi.encodePacked(string(medicalencounter.encounter_time[i]))) == keccak256(abi.encodePacked(_time))){\n                 if(keccak256(abi.encodePacked(medicalencounter.heathcare_professional[i])) == keccak256(abi.encodePacked(_dr_name))){\n                    if(keccak256(abi.encodePacked(medicalencounter.details[i])) == keccak256(abi.encodePacked(_details))){\n                        return (string(abi.encodePacked(MedicalEncounters[patientCnic].JSON_Data,\"]\")));\n                            \n                    \n                    }\n                    // return (medicalencounter.heathcare_professional[i],medicalencounter.uid.length);\n                    \n                 } \n                       \n            }\n        }\n        // return \"{\\\"result \\\": \\\"No encounter found\\\"}\";\n        return (\"{\\\"result \\\": \\\"No encounter found\\\"}\");\n    }\n    \n    \n   \n    \n   \n}",
  "sourcePath": "/opt/bitnami/apache2/htdocs/apis/FYP-Blockchain-And-Health/NodeApis/contracts/MedicalEncounter.sol",
  "compiler": {
    "name": "solc",
    "version": "0.5.16+commit.9c3226ce.Emscripten.clang"
  },
  "schemaVersion": "3.2.0",
  "updatedAt": "2020-05-30T18:00:10.995Z",
  "networkType": "ethereum",
  "devdoc": {
    "methods": {}
  },
  "userdoc": {
    "methods": {}
  }
}