{
  "contractName": "Patient",
  "abi": [
    {
      "inputs": [],
      "payable": false,
      "stateMutability": "nonpayable",
      "type": "constructor"
    },
    {
      "constant": false,
      "inputs": [
        {
          "internalType": "string",
          "name": "_fname",
          "type": "string"
        },
        {
          "internalType": "string",
          "name": "_pat_address",
          "type": "string"
        },
        {
          "internalType": "string",
          "name": "_city",
          "type": "string"
        },
        {
          "internalType": "string",
          "name": "_country",
          "type": "string"
        },
        {
          "internalType": "string",
          "name": "_weight",
          "type": "string"
        },
        {
          "internalType": "string",
          "name": "_height",
          "type": "string"
        },
        {
          "internalType": "string",
          "name": "_cnic",
          "type": "string"
        },
        {
          "internalType": "string",
          "name": "_DoB",
          "type": "string"
        },
        {
          "internalType": "string",
          "name": "_email",
          "type": "string"
        },
        {
          "internalType": "string",
          "name": "_password",
          "type": "string"
        },
        {
          "internalType": "address",
          "name": "_address",
          "type": "address"
        }
      ],
      "name": "setPatient",
      "outputs": [],
      "payable": false,
      "stateMutability": "nonpayable",
      "type": "function"
    },
    {
      "constant": true,
      "inputs": [
        {
          "internalType": "string",
          "name": "_address",
          "type": "string"
        },
        {
          "internalType": "string",
          "name": "_password",
          "type": "string"
        }
      ],
      "name": "getPatient",
      "outputs": [
        {
          "internalType": "string",
          "name": "",
          "type": "string"
        },
        {
          "internalType": "string",
          "name": "",
          "type": "string"
        },
        {
          "internalType": "string",
          "name": "",
          "type": "string"
        },
        {
          "internalType": "string",
          "name": "",
          "type": "string"
        },
        {
          "internalType": "address",
          "name": "",
          "type": "address"
        },
        {
          "internalType": "uint256",
          "name": "",
          "type": "uint256"
        }
      ],
      "payable": false,
      "stateMutability": "view",
      "type": "function"
    },
    {
      "constant": true,
      "inputs": [
        {
          "internalType": "string",
          "name": "_cnic",
          "type": "string"
        }
      ],
      "name": "getPatientAddress",
      "outputs": [
        {
          "internalType": "address",
          "name": "",
          "type": "address"
        }
      ],
      "payable": false,
      "stateMutability": "view",
      "type": "function"
    },
    {
      "constant": true,
      "inputs": [],
      "name": "getAllPatients",
      "outputs": [
        {
          "components": [
            {
              "internalType": "uint256",
              "name": "uid",
              "type": "uint256"
            },
            {
              "internalType": "address",
              "name": "acc_address",
              "type": "address"
            },
            {
              "internalType": "string",
              "name": "fname",
              "type": "string"
            },
            {
              "internalType": "string",
              "name": "pat_address",
              "type": "string"
            },
            {
              "internalType": "string",
              "name": "city",
              "type": "string"
            },
            {
              "internalType": "string",
              "name": "country",
              "type": "string"
            },
            {
              "internalType": "string",
              "name": "weight",
              "type": "string"
            },
            {
              "internalType": "string",
              "name": "height",
              "type": "string"
            },
            {
              "internalType": "string",
              "name": "cnic",
              "type": "string"
            },
            {
              "internalType": "string",
              "name": "DoB",
              "type": "string"
            },
            {
              "internalType": "string",
              "name": "password",
              "type": "string"
            },
            {
              "internalType": "string",
              "name": "email",
              "type": "string"
            },
            {
              "internalType": "string",
              "name": "signup_time",
              "type": "string"
            }
          ],
          "internalType": "struct Patient.PatientData[]",
          "name": "",
          "type": "tuple[]"
        }
      ],
      "payable": false,
      "stateMutability": "view",
      "type": "function"
    }
  ],
  "bytecode": "0x60806040526000805534801561001457600080fd5b5033600360006101000a81548173ffffffffffffffffffffffffffffffffffffffff021916908373ffffffffffffffffffffffffffffffffffffffff160217905550611a2f806100656000396000f3fe608060405234801561001057600080fd5b506004361061004c5760003560e01c806318a231a91461005157806351c555121461006f5780638b8e0acd146100a4578063ca987a30146100c0575b600080fd5b6100596100f0565b60405161006691906117bd565b60405180910390f35b610089600480360361008491908101906111d3565b61090a565b60405161009b969594939291906117df565b60405180910390f35b6100be60048036036100b9919081019061123f565b610d92565b005b6100da60048036036100d59190810190611192565b610fbb565b6040516100e791906117a2565b60405180910390f35b60608060048054905060405190808252806020026020018201604052801561013257816020015b61011f611006565b8152602001906001900390816101175790505b50905060008090505b6004805490508110156109025760016004828154811061015757fe5b9060005260206000200160405161016e919061178b565b9081526020016040518091039020604051806101a0016040529081600082015481526020016001820160009054906101000a900473ffffffffffffffffffffffffffffffffffffffff1673ffffffffffffffffffffffffffffffffffffffff1673ffffffffffffffffffffffffffffffffffffffff168152602001600282018054600181600116156101000203166002900480601f0160208091040260200160405190810160405280929190818152602001828054600181600116156101000203166002900480156102815780601f1061025657610100808354040283529160200191610281565b820191906000526020600020905b81548152906001019060200180831161026457829003601f168201915b50505050508152602001600382018054600181600116156101000203166002900480601f0160208091040260200160405190810160405280929190818152602001828054600181600116156101000203166002900480156103235780601f106102f857610100808354040283529160200191610323565b820191906000526020600020905b81548152906001019060200180831161030657829003601f168201915b50505050508152602001600482018054600181600116156101000203166002900480601f0160208091040260200160405190810160405280929190818152602001828054600181600116156101000203166002900480156103c55780601f1061039a576101008083540402835291602001916103c5565b820191906000526020600020905b8154815290600101906020018083116103a857829003601f168201915b50505050508152602001600582018054600181600116156101000203166002900480601f0160208091040260200160405190810160405280929190818152602001828054600181600116156101000203166002900480156104675780601f1061043c57610100808354040283529160200191610467565b820191906000526020600020905b81548152906001019060200180831161044a57829003601f168201915b50505050508152602001600682018054600181600116156101000203166002900480601f0160208091040260200160405190810160405280929190818152602001828054600181600116156101000203166002900480156105095780601f106104de57610100808354040283529160200191610509565b820191906000526020600020905b8154815290600101906020018083116104ec57829003601f168201915b50505050508152602001600782018054600181600116156101000203166002900480601f0160208091040260200160405190810160405280929190818152602001828054600181600116156101000203166002900480156105ab5780601f10610580576101008083540402835291602001916105ab565b820191906000526020600020905b81548152906001019060200180831161058e57829003601f168201915b50505050508152602001600882018054600181600116156101000203166002900480601f01602080910402602001604051908101604052809291908181526020018280546001816001161561010002031660029004801561064d5780601f106106225761010080835404028352916020019161064d565b820191906000526020600020905b81548152906001019060200180831161063057829003601f168201915b50505050508152602001600982018054600181600116156101000203166002900480601f0160208091040260200160405190810160405280929190818152602001828054600181600116156101000203166002900480156106ef5780601f106106c4576101008083540402835291602001916106ef565b820191906000526020600020905b8154815290600101906020018083116106d257829003601f168201915b50505050508152602001600a82018054600181600116156101000203166002900480601f0160208091040260200160405190810160405280929190818152602001828054600181600116156101000203166002900480156107915780601f1061076657610100808354040283529160200191610791565b820191906000526020600020905b81548152906001019060200180831161077457829003601f168201915b50505050508152602001600b82018054600181600116156101000203166002900480601f0160208091040260200160405190810160405280929190818152602001828054600181600116156101000203166002900480156108335780601f1061080857610100808354040283529160200191610833565b820191906000526020600020905b81548152906001019060200180831161081657829003601f168201915b50505050508152602001600c82018054600181600116156101000203166002900480601f0160208091040260200160405190810160405280929190818152602001828054600181600116156101000203166002900480156108d55780601f106108aa576101008083540402835291602001916108d5565b820191906000526020600020905b8154815290600101906020018083116108b857829003601f168201915b5050505050815250508282815181106108ea57fe5b6020026020010181905250808060010191505061013b565b508091505090565b6060806060806000806001886040516109239190611774565b9081526020016040518091039020600a01604051602001610944919061178b565b604051602081830303815290604052805190602001208760405160200161096b9190611774565b604051602081830303815290604052805190602001201461099d57604051806020016040528060008152509750610a24565b6001886040516109ad9190611774565b90815260200160405180910390206008016040516020016109ce919061178b565b60405160208183030381529060405280519060200120886040516020016109f59190611774565b6040516020818303038152906040528051906020012014610a23576040518060200160405280600081525097505b5b600188604051610a349190611774565b9081526020016040518091039020600201600189604051610a559190611774565b908152602001604051809103902060080160018a604051610a769190611774565b908152602001604051809103902060090160018b604051610a979190611774565b9081526020016040518091039020600b0160018c604051610ab89190611774565b908152602001604051809103902060010160009054906101000a900473ffffffffffffffffffffffffffffffffffffffff1660018d604051610afa9190611774565b908152602001604051809103902060000154858054600181600116156101000203166002900480601f016020809104026020016040519081016040528092919081815260200182805460018160011615610100020316600290048015610ba15780601f10610b7657610100808354040283529160200191610ba1565b820191906000526020600020905b815481529060010190602001808311610b8457829003601f168201915b50505050509550848054600181600116156101000203166002900480601f016020809104026020016040519081016040528092919081815260200182805460018160011615610100020316600290048015610c3d5780601f10610c1257610100808354040283529160200191610c3d565b820191906000526020600020905b815481529060010190602001808311610c2057829003601f168201915b50505050509450838054600181600116156101000203166002900480601f016020809104026020016040519081016040528092919081815260200182805460018160011615610100020316600290048015610cd95780601f10610cae57610100808354040283529160200191610cd9565b820191906000526020600020905b815481529060010190602001808311610cbc57829003601f168201915b50505050509350828054600181600116156101000203166002900480601f016020809104026020016040519081016040528092919081815260200182805460018160011615610100020316600290048015610d755780601f10610d4a57610100808354040283529160200191610d75565b820191906000526020600020905b815481529060010190602001808311610d5857829003601f168201915b505050505092509550955095509550955095509295509295509295565b6004859080600181540180825580915050906001820390600052602060002001600090919290919091509080519060200190610dcf929190611084565b50506000600186604051610de39190611774565b908152602001604051809103902090508b816002019080519060200190610e0b929190611084565b508a816003019080519060200190610e24929190611084565b5089816004019080519060200190610e3d929190611084565b5088816005019080519060200190610e56929190611084565b5087816006019080519060200190610e6f929190611084565b5086816007019080519060200190610e88929190611084565b5085816008019080519060200190610ea1929190611084565b5084816009019080519060200190610eba929190611084565b508381600b019080519060200190610ed3929190611084565b508281600a019080519060200190610eec929190611084565b506000548160000181905550818160010160006101000a81548173ffffffffffffffffffffffffffffffffffffffff021916908373ffffffffffffffffffffffffffffffffffffffff16021790555060028290806001815401808255809150509060018203906000526020600020016000909192909190916101000a81548173ffffffffffffffffffffffffffffffffffffffff021916908373ffffffffffffffffffffffffffffffffffffffff16021790555050600160005401600081905550505050505050505050505050565b6000600182604051610fcd9190611774565b908152602001604051809103902060010160009054906101000a900473ffffffffffffffffffffffffffffffffffffffff169050919050565b604051806101a0016040528060008152602001600073ffffffffffffffffffffffffffffffffffffffff16815260200160608152602001606081526020016060815260200160608152602001606081526020016060815260200160608152602001606081526020016060815260200160608152602001606081525090565b828054600181600116156101000203166002900490600052602060002090601f016020900481019282601f106110c557805160ff19168380011785556110f3565b828001600101855582156110f3579182015b828111156110f25782518255916020019190600101906110d7565b5b5090506111009190611104565b5090565b61112691905b8082111561112257600081600090555060010161110a565b5090565b90565b600081359050611138816119d5565b92915050565b600082601f83011261114f57600080fd5b813561116261115d82611889565b61185c565b9150808252602083016020830185838301111561117e57600080fd5b611189838284611982565b50505092915050565b6000602082840312156111a457600080fd5b600082013567ffffffffffffffff8111156111be57600080fd5b6111ca8482850161113e565b91505092915050565b600080604083850312156111e657600080fd5b600083013567ffffffffffffffff81111561120057600080fd5b61120c8582860161113e565b925050602083013567ffffffffffffffff81111561122957600080fd5b6112358582860161113e565b9150509250929050565b60008060008060008060008060008060006101608c8e03121561126157600080fd5b60008c013567ffffffffffffffff81111561127b57600080fd5b6112878e828f0161113e565b9b505060208c013567ffffffffffffffff8111156112a457600080fd5b6112b08e828f0161113e565b9a505060408c013567ffffffffffffffff8111156112cd57600080fd5b6112d98e828f0161113e565b99505060608c013567ffffffffffffffff8111156112f657600080fd5b6113028e828f0161113e565b98505060808c013567ffffffffffffffff81111561131f57600080fd5b61132b8e828f0161113e565b97505060a08c013567ffffffffffffffff81111561134857600080fd5b6113548e828f0161113e565b96505060c08c013567ffffffffffffffff81111561137157600080fd5b61137d8e828f0161113e565b95505060e08c013567ffffffffffffffff81111561139a57600080fd5b6113a68e828f0161113e565b9450506101008c013567ffffffffffffffff8111156113c457600080fd5b6113d08e828f0161113e565b9350506101208c013567ffffffffffffffff8111156113ee57600080fd5b6113fa8e828f0161113e565b92505061014061140c8e828f01611129565b9150509295989b509295989b9093969950565b600061142b83836115f7565b905092915050565b61143c81611946565b82525050565b61144b81611946565b82525050565b600061145c826118da565b6114668185611908565b935083602082028501611478856118b5565b8060005b858110156114b45784840389528151611495858261141f565b94506114a0836118fb565b925060208a0199505060018101905061147c565b50829750879550505050505092915050565b60006114d1826118f0565b6114db818561192a565b93506114eb818560208601611991565b6114f4816119c4565b840191505092915050565b600061150a826118f0565b611514818561193b565b9350611524818560208601611991565b80840191505092915050565b600061153b826118e5565b6115458185611919565b9350611555818560208601611991565b61155e816119c4565b840191505092915050565b60008154600181166000811461158657600181146115ab576115ef565b607f6002830416611597818761193b565b955060ff19831686528086019350506115ef565b600282046115b9818761193b565b95506115c4856118c5565b60005b828110156115e6578154818901526001820191506020810190506115c7565b82880195505050505b505092915050565b60006101a0830160008301516116106000860182611756565b5060208301516116236020860182611433565b506040830151848203604086015261163b8282611530565b915050606083015184820360608601526116558282611530565b9150506080830151848203608086015261166f8282611530565b91505060a083015184820360a08601526116898282611530565b91505060c083015184820360c08601526116a38282611530565b91505060e083015184820360e08601526116bd8282611530565b9150506101008301518482036101008601526116d98282611530565b9150506101208301518482036101208601526116f58282611530565b9150506101408301518482036101408601526117118282611530565b91505061016083015184820361016086015261172d8282611530565b9150506101808301518482036101808601526117498282611530565b9150508091505092915050565b61175f81611978565b82525050565b61176e81611978565b82525050565b600061178082846114ff565b915081905092915050565b60006117978284611569565b915081905092915050565b60006020820190506117b76000830184611442565b92915050565b600060208201905081810360008301526117d78184611451565b905092915050565b600060c08201905081810360008301526117f981896114c6565b9050818103602083015261180d81886114c6565b9050818103604083015261182181876114c6565b9050818103606083015261183581866114c6565b90506118446080830185611442565b61185160a0830184611765565b979650505050505050565b6000604051905081810181811067ffffffffffffffff8211171561187f57600080fd5b8060405250919050565b600067ffffffffffffffff8211156118a057600080fd5b601f19601f8301169050602081019050919050565b6000819050602082019050919050565b60008190508160005260206000209050919050565b600081519050919050565b600081519050919050565b600081519050919050565b6000602082019050919050565b600082825260208201905092915050565b600082825260208201905092915050565b600082825260208201905092915050565b600081905092915050565b600061195182611958565b9050919050565b600073ffffffffffffffffffffffffffffffffffffffff82169050919050565b6000819050919050565b82818337600083830152505050565b60005b838110156119af578082015181840152602081019050611994565b838111156119be576000848401525b50505050565b6000601f19601f8301169050919050565b6119de81611946565b81146119e957600080fd5b5056fea365627a7a72315820aee9f287b164de797f51e887bf206169d90df8c42dfd522330d9f2adddcb7f2e6c6578706572696d656e74616cf564736f6c63430005100040",
  "source": "pragma solidity ^0.5.11;\npragma experimental ABIEncoderV2;\n\ncontract Patient {\n    \n    struct PatientData {\n        uint uid;\n        address acc_address;\n        string fname;\n        string pat_address;\n        string city;\n        string country;\n        string weight;\n        string height;\n        string cnic;\n        string DoB;\n        string password;\n        string email;\n        string signup_time;\n    }\n    \n    uint private index = 0;\n    mapping (string => PatientData) private PatientsList;\n    address[] private PatientsAccts;\n    address private owner;\n    \n    // store all keys of provider mapping;\n    string[] private keyArray ;\n\n    constructor() public {\n\n        owner = msg.sender;\n    }\n\n  \n    function setPatient(string memory _fname, string memory _pat_address, string memory _city, string memory _country, string memory _weight,  string memory _height,  string memory _cnic,string memory _DoB,string memory _email,string memory _password,address _address) public{\n        keyArray.push(_cnic);\n        \n        PatientData storage patient = PatientsList[_cnic];\n        patient.fname = _fname;\n        patient.pat_address = _pat_address;\n        patient.city = _city;\n        patient.country = _country;\n        patient.weight = _weight;\n        patient.height = _height;\n        patient.cnic = _cnic;\n        patient.DoB = _DoB;\n        patient.email = _email;\n        patient.password = _password;\n        patient.uid = index;\n        patient.acc_address = _address;\n        PatientsAccts.push(_address);\n\n        index = index + 1;\n       // emit PatientSettingEvent(_fname,_age);\n    }\n    function getPatient(string memory _address,string memory _password) public view returns(string memory,string memory,string memory,string memory,address,uint){\n        \n      if(keccak256(abi.encodePacked(_password)) != keccak256(abi.encodePacked(PatientsList[_address].password))){\n          // return (\"true\");\n          \n          _address = \"\";\n        }else if(keccak256(abi.encodePacked(_address)) != keccak256(abi.encodePacked(PatientsList[_address].cnic))){\n          // return (\"true\");\n          _address = \"\";\n        }\n        \n        return (PatientsList[_address].fname,PatientsList[_address].cnic,PatientsList[_address].DoB,PatientsList[_address].email,PatientsList[_address].acc_address,PatientsList[_address].uid);\n    }\n    \n    function getPatientAddress(string memory _cnic) public view returns(address){\n        \n\n        return (PatientsList[_cnic].acc_address);\n    }\n    \n    function getAllPatients() public view returns(PatientData[] memory ){ \n        // here address is cnic\n        PatientData[] memory allPatients = new PatientData[](keyArray.length);\n        for (uint i = 0; i < keyArray.length; i++){\n            allPatients[i] = PatientsList[keyArray[i]];\n        }\n        return allPatients;\n    }\n     \n    \n}\n",
  "sourcePath": "/opt/bitnami/apache2/htdocs/apis/FYP-Blockchain-And-Health/NodeApis/contracts/Patient.sol",
  "compiler": {
    "name": "solc",
    "version": "0.5.16+commit.9c3226ce.Emscripten.clang"
  },
  "schemaVersion": "3.2.0",
  "updatedAt": "2020-05-30T17:59:51.742Z",
  "networkType": "ethereum",
  "devdoc": {
    "methods": {}
  },
  "userdoc": {
    "methods": {}
  }
}