{
  "contractName": "Permission",
  "abi": [
    {
      "inputs": [],
      "payable": false,
      "stateMutability": "nonpayable",
      "type": "constructor"
    },
    {
      "constant": false,
      "inputs": [
        {
          "internalType": "string",
          "name": "patientCNIC",
          "type": "string"
        },
        {
          "internalType": "string",
          "name": "providerID",
          "type": "string"
        },
        {
          "internalType": "string",
          "name": "accessLevel",
          "type": "string"
        }
      ],
      "name": "updatePatientPermissionsList",
      "outputs": [],
      "payable": false,
      "stateMutability": "nonpayable",
      "type": "function"
    },
    {
      "constant": true,
      "inputs": [
        {
          "internalType": "string",
          "name": "patientCNIC",
          "type": "string"
        }
      ],
      "name": "getPatientPermissionsList",
      "outputs": [
        {
          "internalType": "string",
          "name": "",
          "type": "string"
        },
        {
          "internalType": "string",
          "name": "",
          "type": "string"
        }
      ],
      "payable": false,
      "stateMutability": "view",
      "type": "function"
    },
    {
      "constant": false,
      "inputs": [
        {
          "internalType": "string",
          "name": "patientCNIC",
          "type": "string"
        },
        {
          "internalType": "string",
          "name": "providerID",
          "type": "string"
        },
        {
          "internalType": "string",
          "name": "accessLevel",
          "type": "string"
        }
      ],
      "name": "updateProviderPermissionsList",
      "outputs": [],
      "payable": false,
      "stateMutability": "nonpayable",
      "type": "function"
    },
    {
      "constant": true,
      "inputs": [
        {
          "internalType": "string",
          "name": "providerID",
          "type": "string"
        }
      ],
      "name": "getProviderPermissionsList",
      "outputs": [
        {
          "internalType": "string",
          "name": "",
          "type": "string"
        },
        {
          "internalType": "string",
          "name": "",
          "type": "string"
        }
      ],
      "payable": false,
      "stateMutability": "view",
      "type": "function"
    }
  ],
  "bytecode": "0x608060405234801561001057600080fd5b5033600260006101000a81548173ffffffffffffffffffffffffffffffffffffffff021916908373ffffffffffffffffffffffffffffffffffffffff16021790555061243b806100616000396000f3fe608060405234801561001057600080fd5b506004361061004c5760003560e01c80632c85bbf1146100515780638519ca10146101f157806395a3eef114610391578063b091877e1461057a575b600080fd5b61010a6004803603602081101561006757600080fd5b810190808035906020019064010000000081111561008457600080fd5b82018360208201111561009657600080fd5b803590602001918460018302840111640100000000831117156100b857600080fd5b91908080601f016020809104026020016040519081016040528093929190818152602001838380828437600081840152601f19601f820116905080830192505050505050509192919290505050610763565b604051808060200180602001838103835285818151815260200191508051906020019080838360005b8381101561014e578082015181840152602081019050610133565b50505050905090810190601f16801561017b5780820380516001836020036101000a031916815260200191505b50838103825284818151815260200191508051906020019080838360005b838110156101b4578082015181840152602081019050610199565b50505050905090810190601f1680156101e15780820380516001836020036101000a031916815260200191505b5094505050505060405180910390f35b6102aa6004803603602081101561020757600080fd5b810190808035906020019064010000000081111561022457600080fd5b82018360208201111561023657600080fd5b8035906020019184600183028401116401000000008311171561025857600080fd5b91908080601f016020809104026020016040519081016040528093929190818152602001838380828437600081840152601f19601f820116905080830192505050505050509192919290505050610f65565b604051808060200180602001838103835285818151815260200191508051906020019080838360005b838110156102ee5780820151818401526020810190506102d3565b50505050905090810190601f16801561031b5780820380516001836020036101000a031916815260200191505b50838103825284818151815260200191508051906020019080838360005b83811015610354578082015181840152602081019050610339565b50505050905090810190601f1680156103815780820380516001836020036101000a031916815260200191505b5094505050505060405180910390f35b610578600480360360608110156103a757600080fd5b81019080803590602001906401000000008111156103c457600080fd5b8201836020820111156103d657600080fd5b803590602001918460018302840111640100000000831117156103f857600080fd5b91908080601f016020809104026020016040519081016040528093929190818152602001838380828437600081840152601f19601f8201169050808301925050505050505091929192908035906020019064010000000081111561045b57600080fd5b82018360208201111561046d57600080fd5b8035906020019184600183028401116401000000008311171561048f57600080fd5b91908080601f016020809104026020016040519081016040528093929190818152602001838380828437600081840152601f19601f820116905080830192505050505050509192919290803590602001906401000000008111156104f257600080fd5b82018360208201111561050457600080fd5b8035906020019184600183028401116401000000008311171561052657600080fd5b91908080601f016020809104026020016040519081016040528093929190818152602001838380828437600081840152601f19601f820116905080830192505050505050509192919290505050611766565b005b6107616004803603606081101561059057600080fd5b81019080803590602001906401000000008111156105ad57600080fd5b8201836020820111156105bf57600080fd5b803590602001918460018302840111640100000000831117156105e157600080fd5b91908080601f016020809104026020016040519081016040528093929190818152602001838380828437600081840152601f19601f8201169050808301925050505050505091929192908035906020019064010000000081111561064457600080fd5b82018360208201111561065657600080fd5b8035906020019184600183028401116401000000008311171561067857600080fd5b91908080601f016020809104026020016040519081016040528093929190818152602001838380828437600081840152601f19601f820116905080830192505050505050509192919290803590602001906401000000008111156106db57600080fd5b8201836020820111156106ed57600080fd5b8035906020019184600183028401116401000000008311171561070f57600080fd5b91908080601f016020809104026020016040519081016040528093929190818152602001838380828437600081840152601f19601f820116905080830192505050505050509192919290505050611c55565b005b60608060606040518060400160405280600181526020017f5b00000000000000000000000000000000000000000000000000000000000000815250905060606040518060400160405280600181526020017f5b00000000000000000000000000000000000000000000000000000000000000815250905060006001866040518082805190602001908083835b6020831061081257805182526020820191506020810190506020830392506107ef565b6001836020036101000a0380198251168184511680821785525050505050509050019150509081526020016040518091039020600001805490509050826001876040518082805190602001908083835b602083106108855780518252602082019150602081019050602083039250610862565b6001836020036101000a03801982511681845116808217855250505050505090500191505090815260200160405180910390206000016000815481106108c757fe5b906000526020600020016040516020018083805190602001908083835b6020831061090757805182526020820191506020810190506020830392506108e4565b6001836020036101000a038019825116818451168082178552505050505050905001807f7b2270617469656e745f656d61696c223a220000000000000000000000000000815250601201828054600181600116156101000203166002900480156109a85780601f106109865761010080835404028352918201916109a8565b820191906000526020600020905b815481529060010190602001808311610994575b5050925050506040516020818303038152906040529250816001876040518082805190602001908083835b602083106109f657805182526020820191506020810190506020830392506109d3565b6001836020036101000a0380198251168184511680821785525050505050509050019150509081526020016040518091039020600101600081548110610a3857fe5b906000526020600020016040516020018083805190602001908083835b60208310610a785780518252602082019150602081019050602083039250610a55565b6001836020036101000a038019825116818451168082178552505050505050905001807f7b2270726f76696465645f616363657373223a2200000000000000000000000081525060140182805460018160011615610100020316600290048015610b195780601f10610af7576101008083540402835291820191610b19565b820191906000526020600020905b815481529060010190602001808311610b05575b50509250505060405160208183030381529060405291506000600190505b81811015610e2c57836001886040518082805190602001908083835b60208310610b765780518252602082019150602081019050602083039250610b53565b6001836020036101000a03801982511681845116808217855250505050505090500191505090815260200160405180910390206000018281548110610bb757fe5b906000526020600020016040516020018083805190602001908083835b60208310610bf75780518252602082019150602081019050602083039250610bd4565b6001836020036101000a038019825116818451168082178552505050505050905001807f227d2c7b2270617469656e745f656d61696c223a22000000000000000000000081525060150182805460018160011615610100020316600290048015610c985780601f10610c76576101008083540402835291820191610c98565b820191906000526020600020905b815481529060010190602001808311610c84575b5050925050506040516020818303038152906040529350826001886040518082805190602001908083835b60208310610ce65780518252602082019150602081019050602083039250610cc3565b6001836020036101000a03801982511681845116808217855250505050505090500191505090815260200160405180910390206001018281548110610d2757fe5b906000526020600020016040516020018083805190602001908083835b60208310610d675780518252602082019150602081019050602083039250610d44565b6001836020036101000a038019825116818451168082178552505050505050905001807f227d2c7b2270726f76696465645f616363657373223a2200000000000000000081525060170182805460018160011615610100020316600290048015610e085780601f10610de6576101008083540402835291820191610e08565b820191906000526020600020905b815481529060010190602001808311610df4575b50509250505060405160208183030381529060405292508080600101915050610b37565b50826040516020018082805190602001908083835b60208310610e645780518252602082019150602081019050602083039250610e41565b6001836020036101000a038019825116818451168082178552505050505050905001807f227d5d00000000000000000000000000000000000000000000000000000000008152506003019150506040516020818303038152906040529250816040516020018082805190602001908083835b60208310610ef95780518252602082019150602081019050602083039250610ed6565b6001836020036101000a038019825116818451168082178552505050505050905001807f227d5d00000000000000000000000000000000000000000000000000000000008152506003019150506040516020818303038152906040529150828294509450505050915091565b60608060606040518060400160405280600181526020017f5b00000000000000000000000000000000000000000000000000000000000000815250905060606040518060400160405280600181526020017f5b000000000000000000000000000000000000000000000000000000000000008152509050600080866040518082805190602001908083835b602083106110135780518252602082019150602081019050602083039250610ff0565b6001836020036101000a0380198251168184511680821785525050505050509050019150509081526020016040518091039020600001805490509050826000876040518082805190602001908083835b602083106110865780518252602082019150602081019050602083039250611063565b6001836020036101000a03801982511681845116808217855250505050505090500191505090815260200160405180910390206000016000815481106110c857fe5b906000526020600020016040516020018083805190602001908083835b6020831061110857805182526020820191506020810190506020830392506110e5565b6001836020036101000a038019825116818451168082178552505050505050905001807f7b2270726f76696465725f656d61696c223a2200000000000000000000000000815250601301828054600181600116156101000203166002900480156111a95780601f106111875761010080835404028352918201916111a9565b820191906000526020600020905b815481529060010190602001808311611195575b5050925050506040516020818303038152906040529250816000876040518082805190602001908083835b602083106111f757805182526020820191506020810190506020830392506111d4565b6001836020036101000a038019825116818451168082178552505050505050905001915050908152602001604051809103902060010160008154811061123957fe5b906000526020600020016040516020018083805190602001908083835b602083106112795780518252602082019150602081019050602083039250611256565b6001836020036101000a038019825116818451168082178552505050505050905001807f7b2270726f76696465725f616363657373223a220000000000000000000000008152506014018280546001816001161561010002031660029004801561131a5780601f106112f857610100808354040283529182019161131a565b820191906000526020600020905b815481529060010190602001808311611306575b50509250505060405160208183030381529060405291506000600190505b8181101561162d57836000886040518082805190602001908083835b602083106113775780518252602082019150602081019050602083039250611354565b6001836020036101000a038019825116818451168082178552505050505050905001915050908152602001604051809103902060000182815481106113b857fe5b906000526020600020016040516020018083805190602001908083835b602083106113f857805182526020820191506020810190506020830392506113d5565b6001836020036101000a038019825116818451168082178552505050505050905001807f227d2c7b2270726f76696465725f656d61696c223a2200000000000000000000815250601601828054600181600116156101000203166002900480156114995780601f10611477576101008083540402835291820191611499565b820191906000526020600020905b815481529060010190602001808311611485575b5050925050506040516020818303038152906040529350826000886040518082805190602001908083835b602083106114e757805182526020820191506020810190506020830392506114c4565b6001836020036101000a0380198251168184511680821785525050505050509050019150509081526020016040518091039020600101828154811061152857fe5b906000526020600020016040516020018083805190602001908083835b602083106115685780518252602082019150602081019050602083039250611545565b6001836020036101000a038019825116818451168082178552505050505050905001807f227d2c7b2270726f76696465725f616363657373223a22000000000000000000815250601701828054600181600116156101000203166002900480156116095780601f106115e7576101008083540402835291820191611609565b820191906000526020600020905b8154815290600101906020018083116115f5575b50509250505060405160208183030381529060405292508080600101915050611338565b50826040516020018082805190602001908083835b602083106116655780518252602082019150602081019050602083039250611642565b6001836020036101000a038019825116818451168082178552505050505050905001807f227d5d00000000000000000000000000000000000000000000000000000000008152506003019150506040516020818303038152906040529250816040516020018082805190602001908083835b602083106116fa57805182526020820191506020810190506020830392506116d7565b6001836020036101000a038019825116818451168082178552505050505050905001807f227d5d00000000000000000000000000000000000000000000000000000000008152506003019150506040516020818303038152906040529150828294509450505050915091565b60006001836040518082805190602001908083835b6020831061179e578051825260208201915060208101905060208303925061177b565b6001836020036101000a03801982511681845116808217855250505050505090500191505090815260200160405180910390209050606081600001805480602002602001604051908101604052809291908181526020016000905b828210156118b5578382906000526020600020018054600181600116156101000203166002900480601f0160208091040260200160405190810160405280929190818152602001828054600181600116156101000203166002900480156118a15780601f10611876576101008083540402835291602001916118a1565b820191906000526020600020905b81548152906001019060200180831161188457829003601f168201915b5050505050815260200190600101906117f9565b505050509050600081519050600460006118cf919061214e565b600560006118dd919061214e565b600080905060008090505b82811015611ad657876040516020018082805190602001908083835b602083106119275780518252602082019150602081019050602083039250611904565b6001836020036101000a0380198251168184511680821785525050505050509050019150506040516020818303038152906040528051906020012085600001828154811061197157fe5b9060005260206000200160405160200180828054600181600116156101000203166002900480156119d95780601f106119b75761010080835404028352918201916119d9565b820191906000526020600020905b8154815290600101906020018083116119c5575b50509150506040516020818303038152906040528051906020012014611ac4576004856000018281548110611a0a57fe5b906000526020600020019080600181540180825580915050906001820390600052602060002001600090919290919091509080546001816001161561010002031660029004611a5a92919061216f565b50506005856001018281548110611a6d57fe5b906000526020600020019080600181540180825580915050906001820390600052602060002001600090919290919091509080546001816001161561010002031660029004611abd92919061216f565b5050611ac9565b600191505b80806001019150506118e8565b50600081148015611b9e575060405160200180807f3000000000000000000000000000000000000000000000000000000000000000815250600101905060405160208183030381529060405280519060200120856040516020018082805190602001908083835b60208310611b605780518252602082019150602081019050602083039250611b3d565b6001836020036101000a0380198251168184511680821785525050505050509050019150506040516020818303038152906040528051906020012014155b15611c22576004879080600181540180825580915050906001820390600052602060002001600090919290919091509080519060200190611be09291906121f6565b50506005859080600181540180825580915050906001820390600052602060002001600090919290919091509080519060200190611c1f9291906121f6565b50505b600484600001908054611c36929190612276565b50600584600101908054611c4b929190612276565b5050505050505050565b600080846040518082805190602001908083835b60208310611c8c5780518252602082019150602081019050602083039250611c69565b6001836020036101000a03801982511681845116808217855250505050505090500191505090815260200160405180910390209050606081600001805480602002602001604051908101604052809291908181526020016000905b82821015611da3578382906000526020600020018054600181600116156101000203166002900480601f016020809104026020016040519081016040528092919081815260200182805460018160011615610100020316600290048015611d8f5780601f10611d6457610100808354040283529160200191611d8f565b820191906000526020600020905b815481529060010190602001808311611d7257829003601f168201915b505050505081526020019060010190611ce7565b50505050905060008151905060036000611dbd919061214e565b60056000611dcb919061214e565b600080905060008090505b82811015611fc457866040516020018082805190602001908083835b60208310611e155780518252602082019150602081019050602083039250611df2565b6001836020036101000a03801982511681845116808217855250505050505090500191505060405160208183030381529060405280519060200120856000018281548110611e5f57fe5b906000526020600020016040516020018082805460018160011615610100020316600290048015611ec75780601f10611ea5576101008083540402835291820191611ec7565b820191906000526020600020905b815481529060010190602001808311611eb3575b50509150506040516020818303038152906040528051906020012014611fb2576003856000018281548110611ef857fe5b906000526020600020019080600181540180825580915050906001820390600052602060002001600090919290919091509080546001816001161561010002031660029004611f4892919061216f565b50506005856001018281548110611f5b57fe5b906000526020600020019080600181540180825580915050906001820390600052602060002001600090919290919091509080546001816001161561010002031660029004611fab92919061216f565b5050611fb7565b600191505b8080600101915050611dd6565b5060008114801561208c575060405160200180807f3000000000000000000000000000000000000000000000000000000000000000815250600101905060405160208183030381529060405280519060200120856040516020018082805190602001908083835b6020831061204e578051825260208201915060208101905060208303925061202b565b6001836020036101000a0380198251168184511680821785525050505050509050019150506040516020818303038152906040528051906020012014155b156121105760038690806001815401808255809150509060018203906000526020600020016000909192909190915090805190602001906120ce9291906121f6565b5050600585908060018154018082558091505090600182039060005260206000200160009091929091909150908051906020019061210d9291906121f6565b50505b600384600001908054612124929190612276565b50600584600101908054612139929190612276565b50612145878787611766565b50505050505050565b508054600082559060005260206000209081019061216c91906122e6565b50565b828054600181600116156101000203166002900490600052602060002090601f016020900481019282601f106121a857805485556121e5565b828001600101855582156121e557600052602060002091601f016020900482015b828111156121e45782548255916001019190600101906121c9565b5b5090506121f29190612312565b5090565b828054600181600116156101000203166002900490600052602060002090601f016020900481019282601f1061223757805160ff1916838001178555612265565b82800160010185558215612265579182015b82811115612264578251825591602001919060010190612249565b5b5090506122729190612312565b5090565b8280548282559060005260206000209081019282156122d55760005260206000209182015b828111156122d457828290805460018160011615610100020316600290046122c4929190612337565b509160010191906001019061229b565b5b5090506122e291906122e6565b5090565b61230f91905b8082111561230b576000818161230291906123be565b506001016122ec565b5090565b90565b61233491905b80821115612330576000816000905550600101612318565b5090565b90565b828054600181600116156101000203166002900490600052602060002090601f016020900481019282601f1061237057805485556123ad565b828001600101855582156123ad57600052602060002091601f016020900482015b828111156123ac578254825591600101919060010190612391565b5b5090506123ba9190612312565b5090565b50805460018160011615610100020316600290046000825580601f106123e45750612403565b601f0160209004906000526020600020908101906124029190612312565b5b5056fea265627a7a72315820e7ed3926f488056a64f15b1e27e20bcd83666576459e7845e5d31faa2f5a660264736f6c63430005100032",
  "source": "pragma solidity >=0.4.22 <0.6.0;\n//pragma experimental ABIEncoderV2;\ncontract  Permission {\n   \n    // Patient to Provider Permissions List\n    struct ProvidersHavingAccessToPatient {\n        string[] providerName;\n        string[] accessLevel;\n    }\n    \n    // Provider to Patient Permissions List\n    struct PatientsAccessibleByProvider {\n        string[] patientCNIC;\n        string[] accessLevel;\n    }\n   \n    mapping (string => ProvidersHavingAccessToPatient) private ListOfProvidersHavingAccessToPatients;\n    mapping (string => PatientsAccessibleByProvider) private ListOfPatientsAccessibleByProviders;\n \n    address private owner;\n   \n    constructor() public {\n        owner = msg.sender;\n    }\n    \n    string[] private tempProviders;\n    string[] private tempPatients;\n    string[] private tempAccesses;\n    \n    function updatePatientPermissionsList(string memory patientCNIC, string memory providerID, string memory accessLevel) public{\n     \n        // Fetches list of providers that have been given access to patient's information\n        ProvidersHavingAccessToPatient storage providersHavingAccessToPatient = ListOfProvidersHavingAccessToPatients[patientCNIC];\n        \n        // Storing list of providers having access to a patient's information in tempListOfProviders\n        string[] memory tempListOfProvidersForLength = providersHavingAccessToPatient.providerName;\n        uint numberOfProviders = tempListOfProvidersForLength.length;\n        \n        delete tempProviders;\n        delete tempAccesses;\n        \n        int change = 0;\n        \n        for (uint i = 0; i < numberOfProviders; i++){\n            if (keccak256(abi.encodePacked(providersHavingAccessToPatient.providerName[i])) != keccak256(abi.encodePacked(providerID))){\n                \n                tempProviders.push(providersHavingAccessToPatient.providerName[i]);\n                tempAccesses.push(providersHavingAccessToPatient.accessLevel[i]);\n                \n            } \n            else {\n                \n                change = 1;\n                \n            }\n        }\n        \n        if (change == 0 && keccak256(abi.encodePacked(accessLevel)) != keccak256(abi.encodePacked(\"0\"))){\n            \n            tempProviders.push(providerID);\n            tempAccesses.push(accessLevel);\n            \n        }\n        \n        providersHavingAccessToPatient.providerName = tempProviders;\n        providersHavingAccessToPatient.accessLevel = tempAccesses;\n        updateProviderPermissionsList(patientCNIC, providerID, accessLevel);\n      \n    }\n\n    function getPatientPermissionsList(string memory patientCNIC ) public view returns(string  memory, string memory){\n        \n        string memory listOfProviders=\"[\";\n        string memory listOfAccesses=\"[\";\n        \n        uint256 numberOfProviders = ListOfProvidersHavingAccessToPatients[patientCNIC].providerName.length ;\n           \n        listOfProviders = string(abi.encodePacked(listOfProviders,'{\"provider_email\":\"',ListOfProvidersHavingAccessToPatients[patientCNIC].providerName[0]));\n        listOfAccesses = string(abi.encodePacked(listOfAccesses,'{\"provider_access\":\"',ListOfProvidersHavingAccessToPatients[patientCNIC].accessLevel[0]));\n        \n        for(uint256 i=1; i < numberOfProviders; i++)\n        {\n            listOfProviders = string(abi.encodePacked(listOfProviders,'\"},{\"provider_email\":\"',ListOfProvidersHavingAccessToPatients[patientCNIC].providerName[i]));\n            listOfAccesses = string(abi.encodePacked(listOfAccesses,'\"},{\"provider_access\":\"',ListOfProvidersHavingAccessToPatients[patientCNIC].accessLevel[i]));\n        }\n        \n        listOfProviders = string(abi.encodePacked(listOfProviders,'\"}]'));\n        listOfAccesses = string(abi.encodePacked(listOfAccesses,'\"}]'));\n        return (listOfProviders, listOfAccesses);\n        \n    }\n    \n    function updateProviderPermissionsList(string memory patientCNIC, string memory providerID, string memory accessLevel) public{\n     \n        // Fetches list of providers that have been given access to patient's information\n        PatientsAccessibleByProvider storage patientsAccessibleByProvider = ListOfPatientsAccessibleByProviders[providerID];\n        \n        // Storing list of providers having access to a patient's information in tempListOfProviders\n        string[] memory tempListOfProvidersForLength = patientsAccessibleByProvider.patientCNIC;\n        uint numberOfProviders = tempListOfProvidersForLength.length;\n        \n        delete tempPatients;\n        delete tempAccesses;\n        \n        int change = 0;\n        \n        for (uint i = 0; i < numberOfProviders; i++){\n            if (keccak256(abi.encodePacked(patientsAccessibleByProvider.patientCNIC[i])) != keccak256(abi.encodePacked(patientCNIC))){\n                \n                tempPatients.push(patientsAccessibleByProvider.patientCNIC[i]);\n                tempAccesses.push(patientsAccessibleByProvider.accessLevel[i]);\n                \n            } \n            else {\n                \n                change = 1;\n                \n            }\n        }\n        \n        if (change == 0 && keccak256(abi.encodePacked(accessLevel)) != keccak256(abi.encodePacked(\"0\"))){\n            \n            tempPatients.push(patientCNIC);\n            tempAccesses.push(accessLevel);\n            \n        }\n        \n        patientsAccessibleByProvider.patientCNIC = tempPatients;\n        patientsAccessibleByProvider.accessLevel = tempAccesses;\n      \n    }\n    \n    function getProviderPermissionsList(string memory providerID ) public view returns(string  memory, string memory){\n        \n        string memory listOfPatients=\"[\";\n        string memory listOfAccesses=\"[\";\n        \n        uint256 numberOfPatients = ListOfPatientsAccessibleByProviders[providerID].patientCNIC.length ;\n           \n        listOfPatients = string(abi.encodePacked(listOfPatients,'{\"patient_email\":\"',ListOfPatientsAccessibleByProviders[providerID].patientCNIC[0]));\n        listOfAccesses = string(abi.encodePacked(listOfAccesses,'{\"provided_access\":\"',ListOfPatientsAccessibleByProviders[providerID].accessLevel[0]));\n        \n        for(uint256 i=1; i < numberOfPatients; i++)\n        {\n            listOfPatients = string(abi.encodePacked(listOfPatients,'\"},{\"patient_email\":\"',ListOfPatientsAccessibleByProviders[providerID].patientCNIC[i]));\n            listOfAccesses = string(abi.encodePacked(listOfAccesses,'\"},{\"provided_access\":\"',ListOfPatientsAccessibleByProviders[providerID].accessLevel[i]));\n        }\n        \n        listOfPatients = string(abi.encodePacked(listOfPatients,'\"}]'));\n        listOfAccesses = string(abi.encodePacked(listOfAccesses,'\"}]'));\n        return (listOfPatients, listOfAccesses);\n        \n    }\n    \n}\n",
  "sourcePath": "/opt/bitnami/apache2/htdocs/apis/FYP-Blockchain-And-Health/NodeApis/contracts/Permission.sol",
  "compiler": {
    "name": "solc",
    "version": "0.5.16+commit.9c3226ce.Emscripten.clang"
  },
  "schemaVersion": "3.2.0",
  "updatedAt": "2020-06-06T15:55:35.329Z",
  "networkType": "ethereum",
  "devdoc": {
    "methods": {}
  },
  "userdoc": {
    "methods": {}
  }
}