{
  "contractName": "PermissionRequests",
  "abi": [
    {
      "inputs": [],
      "payable": false,
      "stateMutability": "nonpayable",
      "type": "constructor"
    },
    {
      "constant": false,
      "inputs": [
        {
          "internalType": "string",
          "name": "patientCNIC",
          "type": "string"
        },
        {
          "internalType": "string",
          "name": "providerID",
          "type": "string"
        },
        {
          "internalType": "string",
          "name": "accessLevel",
          "type": "string"
        }
      ],
      "name": "updatePatientPermissionRequestsList",
      "outputs": [],
      "payable": false,
      "stateMutability": "nonpayable",
      "type": "function"
    },
    {
      "constant": true,
      "inputs": [
        {
          "internalType": "string",
          "name": "patientCNIC",
          "type": "string"
        }
      ],
      "name": "getPatientPermissionRequestsList",
      "outputs": [
        {
          "internalType": "string",
          "name": "",
          "type": "string"
        },
        {
          "internalType": "string",
          "name": "",
          "type": "string"
        }
      ],
      "payable": false,
      "stateMutability": "view",
      "type": "function"
    },
    {
      "constant": false,
      "inputs": [
        {
          "internalType": "string",
          "name": "patientCNIC",
          "type": "string"
        },
        {
          "internalType": "string",
          "name": "providerID",
          "type": "string"
        },
        {
          "internalType": "string",
          "name": "accessLevel",
          "type": "string"
        }
      ],
      "name": "updateProviderPermissionRequestsList",
      "outputs": [],
      "payable": false,
      "stateMutability": "nonpayable",
      "type": "function"
    },
    {
      "constant": true,
      "inputs": [
        {
          "internalType": "string",
          "name": "providerID",
          "type": "string"
        }
      ],
      "name": "getProviderPermissionRequestsList",
      "outputs": [
        {
          "internalType": "string",
          "name": "",
          "type": "string"
        },
        {
          "internalType": "string",
          "name": "",
          "type": "string"
        }
      ],
      "payable": false,
      "stateMutability": "view",
      "type": "function"
    }
  ],
  "bytecode": "0x608060405234801561001057600080fd5b5033600260006101000a81548173ffffffffffffffffffffffffffffffffffffffff021916908373ffffffffffffffffffffffffffffffffffffffff16021790555061243b806100616000396000f3fe608060405234801561001057600080fd5b506004361061004c5760003560e01c80635053670f14610051578063c63e5eba146101f1578063e07663d9146103da578063f8d13c9b1461057a575b600080fd5b61010a6004803603602081101561006757600080fd5b810190808035906020019064010000000081111561008457600080fd5b82018360208201111561009657600080fd5b803590602001918460018302840111640100000000831117156100b857600080fd5b91908080601f016020809104026020016040519081016040528093929190818152602001838380828437600081840152601f19601f820116905080830192505050505050509192919290505050610763565b604051808060200180602001838103835285818151815260200191508051906020019080838360005b8381101561014e578082015181840152602081019050610133565b50505050905090810190601f16801561017b5780820380516001836020036101000a031916815260200191505b50838103825284818151815260200191508051906020019080838360005b838110156101b4578082015181840152602081019050610199565b50505050905090810190601f1680156101e15780820380516001836020036101000a031916815260200191505b5094505050505060405180910390f35b6103d86004803603606081101561020757600080fd5b810190808035906020019064010000000081111561022457600080fd5b82018360208201111561023657600080fd5b8035906020019184600183028401116401000000008311171561025857600080fd5b91908080601f016020809104026020016040519081016040528093929190818152602001838380828437600081840152601f19601f820116905080830192505050505050509192919290803590602001906401000000008111156102bb57600080fd5b8201836020820111156102cd57600080fd5b803590602001918460018302840111640100000000831117156102ef57600080fd5b91908080601f016020809104026020016040519081016040528093929190818152602001838380828437600081840152601f19601f8201169050808301925050505050505091929192908035906020019064010000000081111561035257600080fd5b82018360208201111561036457600080fd5b8035906020019184600183028401116401000000008311171561038657600080fd5b91908080601f016020809104026020016040519081016040528093929190818152602001838380828437600081840152601f19601f820116905080830192505050505050509192919290505050610f64565b005b610493600480360360208110156103f057600080fd5b810190808035906020019064010000000081111561040d57600080fd5b82018360208201111561041f57600080fd5b8035906020019184600183028401116401000000008311171561044157600080fd5b91908080601f016020809104026020016040519081016040528093929190818152602001838380828437600081840152601f19601f820116905080830192505050505050509192919290505050611453565b604051808060200180602001838103835285818151815260200191508051906020019080838360005b838110156104d75780820151818401526020810190506104bc565b50505050905090810190601f1680156105045780820380516001836020036101000a031916815260200191505b50838103825284818151815260200191508051906020019080838360005b8381101561053d578082015181840152602081019050610522565b50505050905090810190601f16801561056a5780820380516001836020036101000a031916815260200191505b5094505050505060405180910390f35b6107616004803603606081101561059057600080fd5b81019080803590602001906401000000008111156105ad57600080fd5b8201836020820111156105bf57600080fd5b803590602001918460018302840111640100000000831117156105e157600080fd5b91908080601f016020809104026020016040519081016040528093929190818152602001838380828437600081840152601f19601f8201169050808301925050505050505091929192908035906020019064010000000081111561064457600080fd5b82018360208201111561065657600080fd5b8035906020019184600183028401116401000000008311171561067857600080fd5b91908080601f016020809104026020016040519081016040528093929190818152602001838380828437600081840152601f19601f820116905080830192505050505050509192919290803590602001906401000000008111156106db57600080fd5b8201836020820111156106ed57600080fd5b8035906020019184600183028401116401000000008311171561070f57600080fd5b91908080601f016020809104026020016040519081016040528093929190818152602001838380828437600081840152601f19601f820116905080830192505050505050509192919290505050611c55565b005b60608060606040518060400160405280600181526020017f5b00000000000000000000000000000000000000000000000000000000000000815250905060606040518060400160405280600181526020017f5b000000000000000000000000000000000000000000000000000000000000008152509050600080866040518082805190602001908083835b6020831061081157805182526020820191506020810190506020830392506107ee565b6001836020036101000a0380198251168184511680821785525050505050509050019150509081526020016040518091039020600001805490509050826000876040518082805190602001908083835b602083106108845780518252602082019150602081019050602083039250610861565b6001836020036101000a03801982511681845116808217855250505050505090500191505090815260200160405180910390206000016000815481106108c657fe5b906000526020600020016040516020018083805190602001908083835b6020831061090657805182526020820191506020810190506020830392506108e3565b6001836020036101000a038019825116818451168082178552505050505050905001807f7b2270726f76696465725f656d61696c223a2200000000000000000000000000815250601301828054600181600116156101000203166002900480156109a75780601f106109855761010080835404028352918201916109a7565b820191906000526020600020905b815481529060010190602001808311610993575b5050925050506040516020818303038152906040529250816000876040518082805190602001908083835b602083106109f557805182526020820191506020810190506020830392506109d2565b6001836020036101000a0380198251168184511680821785525050505050509050019150509081526020016040518091039020600101600081548110610a3757fe5b906000526020600020016040516020018083805190602001908083835b60208310610a775780518252602082019150602081019050602083039250610a54565b6001836020036101000a038019825116818451168082178552505050505050905001807f7b2270726f76696465725f616363657373223a2200000000000000000000000081525060140182805460018160011615610100020316600290048015610b185780601f10610af6576101008083540402835291820191610b18565b820191906000526020600020905b815481529060010190602001808311610b04575b50509250505060405160208183030381529060405291506000600190505b81811015610e2b57836000886040518082805190602001908083835b60208310610b755780518252602082019150602081019050602083039250610b52565b6001836020036101000a03801982511681845116808217855250505050505090500191505090815260200160405180910390206000018281548110610bb657fe5b906000526020600020016040516020018083805190602001908083835b60208310610bf65780518252602082019150602081019050602083039250610bd3565b6001836020036101000a038019825116818451168082178552505050505050905001807f227d2c7b2270726f76696465725f656d61696c223a220000000000000000000081525060160182805460018160011615610100020316600290048015610c975780601f10610c75576101008083540402835291820191610c97565b820191906000526020600020905b815481529060010190602001808311610c83575b5050925050506040516020818303038152906040529350826000886040518082805190602001908083835b60208310610ce55780518252602082019150602081019050602083039250610cc2565b6001836020036101000a03801982511681845116808217855250505050505090500191505090815260200160405180910390206001018281548110610d2657fe5b906000526020600020016040516020018083805190602001908083835b60208310610d665780518252602082019150602081019050602083039250610d43565b6001836020036101000a038019825116818451168082178552505050505050905001807f227d2c7b2270726f76696465725f616363657373223a2200000000000000000081525060170182805460018160011615610100020316600290048015610e075780601f10610de5576101008083540402835291820191610e07565b820191906000526020600020905b815481529060010190602001808311610df3575b50509250505060405160208183030381529060405292508080600101915050610b36565b50826040516020018082805190602001908083835b60208310610e635780518252602082019150602081019050602083039250610e40565b6001836020036101000a038019825116818451168082178552505050505050905001807f227d5d00000000000000000000000000000000000000000000000000000000008152506003019150506040516020818303038152906040529250816040516020018082805190602001908083835b60208310610ef85780518252602082019150602081019050602083039250610ed5565b6001836020036101000a038019825116818451168082178552505050505050905001807f227d5d00000000000000000000000000000000000000000000000000000000008152506003019150506040516020818303038152906040529150828294509450505050915091565b60006001836040518082805190602001908083835b60208310610f9c5780518252602082019150602081019050602083039250610f79565b6001836020036101000a03801982511681845116808217855250505050505090500191505090815260200160405180910390209050606081600001805480602002602001604051908101604052809291908181526020016000905b828210156110b3578382906000526020600020018054600181600116156101000203166002900480601f01602080910402602001604051908101604052809291908181526020018280546001816001161561010002031660029004801561109f5780601f106110745761010080835404028352916020019161109f565b820191906000526020600020905b81548152906001019060200180831161108257829003601f168201915b505050505081526020019060010190610ff7565b505050509050600081519050600460006110cd919061214e565b600560006110db919061214e565b600080905060008090505b828110156112d457876040516020018082805190602001908083835b602083106111255780518252602082019150602081019050602083039250611102565b6001836020036101000a0380198251168184511680821785525050505050509050019150506040516020818303038152906040528051906020012085600001828154811061116f57fe5b9060005260206000200160405160200180828054600181600116156101000203166002900480156111d75780601f106111b55761010080835404028352918201916111d7565b820191906000526020600020905b8154815290600101906020018083116111c3575b505091505060405160208183030381529060405280519060200120146112c257600485600001828154811061120857fe5b90600052602060002001908060018154018082558091505090600182039060005260206000200160009091929091909150908054600181600116156101000203166002900461125892919061216f565b5050600585600101828154811061126b57fe5b9060005260206000200190806001815401808255809150509060018203906000526020600020016000909192909190915090805460018160011615610100020316600290046112bb92919061216f565b50506112c7565b600191505b80806001019150506110e6565b5060008114801561139c575060405160200180807f3000000000000000000000000000000000000000000000000000000000000000815250600101905060405160208183030381529060405280519060200120856040516020018082805190602001908083835b6020831061135e578051825260208201915060208101905060208303925061133b565b6001836020036101000a0380198251168184511680821785525050505050509050019150506040516020818303038152906040528051906020012014155b156114205760048790806001815401808255809150509060018203906000526020600020016000909192909190915090805190602001906113de9291906121f6565b5050600585908060018154018082558091505090600182039060005260206000200160009091929091909150908051906020019061141d9291906121f6565b50505b600484600001908054611434929190612276565b50600584600101908054611449929190612276565b5050505050505050565b60608060606040518060400160405280600181526020017f5b00000000000000000000000000000000000000000000000000000000000000815250905060606040518060400160405280600181526020017f5b00000000000000000000000000000000000000000000000000000000000000815250905060006001866040518082805190602001908083835b6020831061150257805182526020820191506020810190506020830392506114df565b6001836020036101000a0380198251168184511680821785525050505050509050019150509081526020016040518091039020600001805490509050826001876040518082805190602001908083835b602083106115755780518252602082019150602081019050602083039250611552565b6001836020036101000a03801982511681845116808217855250505050505090500191505090815260200160405180910390206000016000815481106115b757fe5b906000526020600020016040516020018083805190602001908083835b602083106115f757805182526020820191506020810190506020830392506115d4565b6001836020036101000a038019825116818451168082178552505050505050905001807f7b2270617469656e745f636e6963223a22000000000000000000000000000000815250601101828054600181600116156101000203166002900480156116985780601f10611676576101008083540402835291820191611698565b820191906000526020600020905b815481529060010190602001808311611684575b5050925050506040516020818303038152906040529250816001876040518082805190602001908083835b602083106116e657805182526020820191506020810190506020830392506116c3565b6001836020036101000a038019825116818451168082178552505050505050905001915050908152602001604051809103902060010160008154811061172857fe5b906000526020600020016040516020018083805190602001908083835b602083106117685780518252602082019150602081019050602083039250611745565b6001836020036101000a038019825116818451168082178552505050505050905001807f7b227265717565737465645f616363657373223a220000000000000000000000815250601501828054600181600116156101000203166002900480156118095780601f106117e7576101008083540402835291820191611809565b820191906000526020600020905b8154815290600101906020018083116117f5575b50509250505060405160208183030381529060405291506000600190505b81811015611b1c57836001886040518082805190602001908083835b602083106118665780518252602082019150602081019050602083039250611843565b6001836020036101000a038019825116818451168082178552505050505050905001915050908152602001604051809103902060000182815481106118a757fe5b906000526020600020016040516020018083805190602001908083835b602083106118e757805182526020820191506020810190506020830392506118c4565b6001836020036101000a038019825116818451168082178552505050505050905001807f227d2c7b2270617469656e745f636e6963223a22000000000000000000000000815250601401828054600181600116156101000203166002900480156119885780601f10611966576101008083540402835291820191611988565b820191906000526020600020905b815481529060010190602001808311611974575b5050925050506040516020818303038152906040529350826001886040518082805190602001908083835b602083106119d657805182526020820191506020810190506020830392506119b3565b6001836020036101000a03801982511681845116808217855250505050505090500191505090815260200160405180910390206001018281548110611a1757fe5b906000526020600020016040516020018083805190602001908083835b60208310611a575780518252602082019150602081019050602083039250611a34565b6001836020036101000a038019825116818451168082178552505050505050905001807f227d2c7b227265717565737465645f616363657373223a22000000000000000081525060180182805460018160011615610100020316600290048015611af85780601f10611ad6576101008083540402835291820191611af8565b820191906000526020600020905b815481529060010190602001808311611ae4575b50509250505060405160208183030381529060405292508080600101915050611827565b50826040516020018082805190602001908083835b60208310611b545780518252602082019150602081019050602083039250611b31565b6001836020036101000a038019825116818451168082178552505050505050905001807f227d5d00000000000000000000000000000000000000000000000000000000008152506003019150506040516020818303038152906040529250816040516020018082805190602001908083835b60208310611be95780518252602082019150602081019050602083039250611bc6565b6001836020036101000a038019825116818451168082178552505050505050905001807f227d5d00000000000000000000000000000000000000000000000000000000008152506003019150506040516020818303038152906040529150828294509450505050915091565b600080846040518082805190602001908083835b60208310611c8c5780518252602082019150602081019050602083039250611c69565b6001836020036101000a03801982511681845116808217855250505050505090500191505090815260200160405180910390209050606081600001805480602002602001604051908101604052809291908181526020016000905b82821015611da3578382906000526020600020018054600181600116156101000203166002900480601f016020809104026020016040519081016040528092919081815260200182805460018160011615610100020316600290048015611d8f5780601f10611d6457610100808354040283529160200191611d8f565b820191906000526020600020905b815481529060010190602001808311611d7257829003601f168201915b505050505081526020019060010190611ce7565b50505050905060008151905060036000611dbd919061214e565b60056000611dcb919061214e565b600080905060008090505b82811015611fc457866040516020018082805190602001908083835b60208310611e155780518252602082019150602081019050602083039250611df2565b6001836020036101000a03801982511681845116808217855250505050505090500191505060405160208183030381529060405280519060200120856000018281548110611e5f57fe5b906000526020600020016040516020018082805460018160011615610100020316600290048015611ec75780601f10611ea5576101008083540402835291820191611ec7565b820191906000526020600020905b815481529060010190602001808311611eb3575b50509150506040516020818303038152906040528051906020012014611fb2576003856000018281548110611ef857fe5b906000526020600020019080600181540180825580915050906001820390600052602060002001600090919290919091509080546001816001161561010002031660029004611f4892919061216f565b50506005856001018281548110611f5b57fe5b906000526020600020019080600181540180825580915050906001820390600052602060002001600090919290919091509080546001816001161561010002031660029004611fab92919061216f565b5050611fb7565b600191505b8080600101915050611dd6565b5060008114801561208c575060405160200180807f3000000000000000000000000000000000000000000000000000000000000000815250600101905060405160208183030381529060405280519060200120856040516020018082805190602001908083835b6020831061204e578051825260208201915060208101905060208303925061202b565b6001836020036101000a0380198251168184511680821785525050505050509050019150506040516020818303038152906040528051906020012014155b156121105760038690806001815401808255809150509060018203906000526020600020016000909192909190915090805190602001906120ce9291906121f6565b5050600585908060018154018082558091505090600182039060005260206000200160009091929091909150908051906020019061210d9291906121f6565b50505b600384600001908054612124929190612276565b50600584600101908054612139929190612276565b50612145878787610f64565b50505050505050565b508054600082559060005260206000209081019061216c91906122e6565b50565b828054600181600116156101000203166002900490600052602060002090601f016020900481019282601f106121a857805485556121e5565b828001600101855582156121e557600052602060002091601f016020900482015b828111156121e45782548255916001019190600101906121c9565b5b5090506121f29190612312565b5090565b828054600181600116156101000203166002900490600052602060002090601f016020900481019282601f1061223757805160ff1916838001178555612265565b82800160010185558215612265579182015b82811115612264578251825591602001919060010190612249565b5b5090506122729190612312565b5090565b8280548282559060005260206000209081019282156122d55760005260206000209182015b828111156122d457828290805460018160011615610100020316600290046122c4929190612337565b509160010191906001019061229b565b5b5090506122e291906122e6565b5090565b61230f91905b8082111561230b576000818161230291906123be565b506001016122ec565b5090565b90565b61233491905b80821115612330576000816000905550600101612318565b5090565b90565b828054600181600116156101000203166002900490600052602060002090601f016020900481019282601f1061237057805485556123ad565b828001600101855582156123ad57600052602060002091601f016020900482015b828111156123ac578254825591600101919060010190612391565b5b5090506123ba9190612312565b5090565b50805460018160011615610100020316600290046000825580601f106123e45750612403565b601f0160209004906000526020600020908101906124029190612312565b5b5056fea265627a7a723158208975177dce31256f5f87df7716c5a2a89fab72b7ecaaa2366ebc9f35f3d283d564736f6c63430005100032",
  "source": "pragma solidity >=0.4.22 <0.6.0;\n//pragma experimental ABIEncoderV2;\ncontract PermissionRequests {\n   \n    // Patient to Provider Permissions List\n    struct ProvidersRequestingAccessToPatient {\n        string[] providerName;\n        string[] accessLevel;\n    }\n    \n    // Provider to Patient Permissions List\n    struct PatientsRequestedByProvider {\n        string[] patientCNIC;\n        string[] accessLevel;\n    }\n   \n    mapping (string => ProvidersRequestingAccessToPatient) private ListOfProvidersRequestingAccessToPatients;\n    mapping (string => PatientsRequestedByProvider)  private ListOfPatientsRequestedByProviders;\n \n    address  private owner;\n   \n    constructor() public {\n        owner = msg.sender;\n    }\n    \n    string[]  private tempProviders;\n    string[]  private tempPatients;\n    string[]  private tempAccesses;\n    \n    function updatePatientPermissionRequestsList(string memory patientCNIC, string memory providerID, string memory accessLevel) public{\n     \n        // Fetches list of providers that have been given access to patient's information\n        ProvidersRequestingAccessToPatient storage providersRequestingAccessToPatient = ListOfProvidersRequestingAccessToPatients[patientCNIC];\n        \n        // Storing list of providers Requesting access to a patient's information in tempListOfProviders\n        string[] memory tempListOfProvidersForLength = providersRequestingAccessToPatient.providerName;\n        uint numberOfProviders = tempListOfProvidersForLength.length;\n        \n        delete tempProviders;\n        delete tempAccesses;\n        \n        int change = 0;\n        \n        for (uint i = 0; i < numberOfProviders; i++){\n            if (keccak256(abi.encodePacked(providersRequestingAccessToPatient.providerName[i])) != keccak256(abi.encodePacked(providerID))){\n                \n                tempProviders.push(providersRequestingAccessToPatient.providerName[i]);\n                tempAccesses.push(providersRequestingAccessToPatient.accessLevel[i]);\n                \n            } \n            else {\n                \n                change = 1;\n                \n            }\n        }\n        \n        if (change == 0 && keccak256(abi.encodePacked(accessLevel)) != keccak256(abi.encodePacked(\"0\"))){\n            \n            tempProviders.push(providerID);\n            tempAccesses.push(accessLevel);\n            \n        }\n        \n        providersRequestingAccessToPatient.providerName = tempProviders;\n        providersRequestingAccessToPatient.accessLevel = tempAccesses;\n        updateProviderPermissionRequestsList(patientCNIC, providerID, accessLevel);\n      \n    }\n\n    function getPatientPermissionRequestsList(string memory patientCNIC ) public view returns(string  memory, string memory){\n        \n        string memory listOfProviders=\"[\";\n        string memory listOfAccesses=\"[\";\n        \n        uint256 numberOfProviders = ListOfProvidersRequestingAccessToPatients[patientCNIC].providerName.length ;\n           \n        listOfProviders = string(abi.encodePacked(listOfProviders,'{\"provider_email\":\"',ListOfProvidersRequestingAccessToPatients[patientCNIC].providerName[0]));\n        listOfAccesses = string(abi.encodePacked(listOfAccesses,'{\"provider_access\":\"',ListOfProvidersRequestingAccessToPatients[patientCNIC].accessLevel[0]));\n        \n        for(uint256 i=1; i < numberOfProviders; i++)\n        {\n            listOfProviders = string(abi.encodePacked(listOfProviders,'\"},{\"provider_email\":\"',ListOfProvidersRequestingAccessToPatients[patientCNIC].providerName[i]));\n            listOfAccesses = string(abi.encodePacked(listOfAccesses,'\"},{\"provider_access\":\"',ListOfProvidersRequestingAccessToPatients[patientCNIC].accessLevel[i]));\n        }\n        \n        listOfProviders = string(abi.encodePacked(listOfProviders,'\"}]'));\n        listOfAccesses = string(abi.encodePacked(listOfAccesses,'\"}]'));\n        return (listOfProviders, listOfAccesses);\n        \n    }\n    \n    function updateProviderPermissionRequestsList(string memory patientCNIC, string memory providerID, string memory accessLevel) public{\n     \n        // Fetches list of providers that have been given access to patient's information\n        PatientsRequestedByProvider storage patientsRequestedByProvider = ListOfPatientsRequestedByProviders[providerID];\n        \n        // Storing list of providers Requesting access to a patient's information in tempListOfProviders\n        string[] memory tempListOfProvidersForLength = patientsRequestedByProvider.patientCNIC;\n        uint numberOfProviders = tempListOfProvidersForLength.length;\n        \n        delete tempPatients;\n        delete tempAccesses;\n        \n        int change = 0;\n        \n        for (uint i = 0; i < numberOfProviders; i++){\n            if (keccak256(abi.encodePacked(patientsRequestedByProvider.patientCNIC[i])) != keccak256(abi.encodePacked(patientCNIC))){\n                \n                tempPatients.push(patientsRequestedByProvider.patientCNIC[i]);\n                tempAccesses.push(patientsRequestedByProvider.accessLevel[i]);\n                \n            } \n            else {\n                \n                change = 1;\n                \n            }\n        }\n        \n        if (change == 0 && keccak256(abi.encodePacked(accessLevel)) != keccak256(abi.encodePacked(\"0\"))){\n            \n            tempPatients.push(patientCNIC);\n            tempAccesses.push(accessLevel);\n            \n        }\n        \n        patientsRequestedByProvider.patientCNIC = tempPatients;\n        patientsRequestedByProvider.accessLevel = tempAccesses;\n      \n    }\n    \n    function getProviderPermissionRequestsList(string memory providerID ) public view returns(string  memory, string memory){\n        \n        string memory listOfPatients=\"[\";\n        string memory listOfAccesses=\"[\";\n        \n        uint256 numberOfPatients = ListOfPatientsRequestedByProviders[providerID].patientCNIC.length ;\n           \n        listOfPatients = string(abi.encodePacked(listOfPatients,'{\"patient_cnic\":\"',ListOfPatientsRequestedByProviders[providerID].patientCNIC[0]));\n        listOfAccesses = string(abi.encodePacked(listOfAccesses,'{\"requested_access\":\"',ListOfPatientsRequestedByProviders[providerID].accessLevel[0]));\n        \n        for(uint256 i=1; i < numberOfPatients; i++)\n        {\n            listOfPatients = string(abi.encodePacked(listOfPatients,'\"},{\"patient_cnic\":\"',ListOfPatientsRequestedByProviders[providerID].patientCNIC[i]));\n            listOfAccesses = string(abi.encodePacked(listOfAccesses,'\"},{\"requested_access\":\"',ListOfPatientsRequestedByProviders[providerID].accessLevel[i]));\n        }\n        \n        listOfPatients = string(abi.encodePacked(listOfPatients,'\"}]'));\n        listOfAccesses = string(abi.encodePacked(listOfAccesses,'\"}]'));\n        return (listOfPatients, listOfAccesses);\n        \n    }\n    \n}",
  "sourcePath": "/opt/bitnami/apache2/htdocs/apis/FYP-Blockchain-And-Health/NodeApis/contracts/PermissionRequests.sol",
  "compiler": {
    "name": "solc",
    "version": "0.5.16+commit.9c3226ce.Emscripten.clang"
  },
  "schemaVersion": "3.2.0",
  "updatedAt": "2020-05-30T18:00:28.251Z",
  "networkType": "ethereum",
  "devdoc": {
    "methods": {}
  },
  "userdoc": {
    "methods": {}
  }
}