{
  "contractName": "Prescription",
  "abi": [
    {
      "inputs": [],
      "payable": false,
      "stateMutability": "nonpayable",
      "type": "constructor"
    },
    {
      "constant": false,
      "inputs": [
        {
          "internalType": "string",
          "name": "_prec_time",
          "type": "string"
        },
        {
          "internalType": "string",
          "name": "enc_id",
          "type": "string"
        },
        {
          "internalType": "address",
          "name": "provider",
          "type": "address"
        },
        {
          "internalType": "string",
          "name": "_json",
          "type": "string"
        }
      ],
      "name": "setPrescriptionrData",
      "outputs": [],
      "payable": false,
      "stateMutability": "nonpayable",
      "type": "function"
    },
    {
      "constant": true,
      "inputs": [
        {
          "internalType": "string",
          "name": "enc_id",
          "type": "string"
        }
      ],
      "name": "getPrescriptionData",
      "outputs": [
        {
          "internalType": "string",
          "name": "",
          "type": "string"
        }
      ],
      "payable": false,
      "stateMutability": "view",
      "type": "function"
    }
  ],
  "bytecode": "0x6080604052600060025534801561001557600080fd5b5033600160006101000a81548173ffffffffffffffffffffffffffffffffffffffff021916908373ffffffffffffffffffffffffffffffffffffffff160217905550610943806100666000396000f3fe608060405234801561001057600080fd5b50600436106100365760003560e01c806353f96bfd1461003b578063f501c5d814610244575b600080fd5b6102426004803603608081101561005157600080fd5b810190808035906020019064010000000081111561006e57600080fd5b82018360208201111561008057600080fd5b803590602001918460018302840111640100000000831117156100a257600080fd5b91908080601f016020809104026020016040519081016040528093929190818152602001838380828437600081840152601f19601f8201169050808301925050505050505091929192908035906020019064010000000081111561010557600080fd5b82018360208201111561011757600080fd5b8035906020019184600183028401116401000000008311171561013957600080fd5b91908080601f016020809104026020016040519081016040528093929190818152602001838380828437600081840152601f19601f820116905080830192505050505050509192919290803573ffffffffffffffffffffffffffffffffffffffff169060200190929190803590602001906401000000008111156101bc57600080fd5b8201836020820111156101ce57600080fd5b803590602001918460018302840111640100000000831117156101f057600080fd5b91908080601f016020809104026020016040519081016040528093929190818152602001838380828437600081840152601f19601f820116905080830192505050505050509192919290505050610378565b005b6102fd6004803603602081101561025a57600080fd5b810190808035906020019064010000000081111561027757600080fd5b82018360208201111561028957600080fd5b803590602001918460018302840111640100000000831117156102ab57600080fd5b91908080601f016020809104026020016040519081016040528093929190818152602001838380828437600081840152601f19601f82011690508083019250505050505050919291929050505061075a565b6040518080602001828103825283818151815260200191508051906020019080838360005b8381101561033d578082015181840152602081019050610322565b50505050905090810190601f16801561036a5780820380516001836020036101000a031916815260200191505b509250505060405180910390f35b600080846040518082805190602001908083835b602083106103af578051825260208201915060208101905060208303925061038c565b6001836020036101000a03801982511681845116808217855250505050505090500191505090815260200160405180910390209050848160020190805190602001906103fc929190610869565b50828160030160006101000a81548173ffffffffffffffffffffffffffffffffffffffff021916908373ffffffffffffffffffffffffffffffffffffffff160217905550600254816000018190555083816001019080519060200190610463929190610869565b50604051602001806000019050604051602081830303815290604052805190602001208160040160405160200180828054600181600116156101000203166002900480156104e85780601f106104c65761010080835404028352918201916104e8565b820191906000526020600020905b8154815290600101906020018083116104d4575b505091505060405160208183030381529060405280519060200120141561063d576040518060400160405280600181526020017f5b00000000000000000000000000000000000000000000000000000000000000815250816004019080519060200190610556929190610869565b50806004018260405160200180838054600181600116156101000203166002900480156105ba5780601f106105985761010080835404028352918201916105ba565b820191906000526020600020905b8154815290600101906020018083116105a6575b505082805190602001908083835b602083106105eb57805182526020820191506020810190506020830392506105c8565b6001836020036101000a03801982511681845116808217855250505050505090500192505050604051602081830303815290604052816004019080519060200190610637929190610869565b50610747565b806004018260405160200180838054600181600116156101000203166002900480156106a05780601f1061067e5761010080835404028352918201916106a0565b820191906000526020600020905b81548152906001019060200180831161068c575b5050807f2c0000000000000000000000000000000000000000000000000000000000000081525060010182805190602001908083835b602083106106f957805182526020820191506020810190506020830392506106d6565b6001836020036101000a03801982511681845116808217855250505050505090500192505050604051602081830303815290604052816004019080519060200190610745929190610869565b505b6001600254016002819055505050505050565b60606000826040518082805190602001908083835b60208310610792578051825260208201915060208101905060208303925061076f565b6001836020036101000a038019825116818451168082178552505050505050905001915050908152602001604051809103902060040160405160200180828054600181600116156101000203166002900480156108265780601f10610804576101008083540402835291820191610826565b820191906000526020600020905b815481529060010190602001808311610812575b5050807f5d000000000000000000000000000000000000000000000000000000000000008152506001019150506040516020818303038152906040529050919050565b828054600181600116156101000203166002900490600052602060002090601f016020900481019282601f106108aa57805160ff19168380011785556108d8565b828001600101855582156108d8579182015b828111156108d75782518255916020019190600101906108bc565b5b5090506108e591906108e9565b5090565b61090b91905b808211156109075760008160009055506001016108ef565b5090565b9056fea265627a7a7231582099888fdc36f2c0639df931e5745249454c48eb6ab369e61a66607aebc58f867664736f6c63430005100032",
  "source": "pragma solidity >=0.4.22 <0.6.0;\n//pragma experimental ABIEncoderV2;\n//import \"github.com/Arachnid/solidity-stringutils/strings.sol\";\n\ncontract Prescription {\n   \n   \n    struct PrescriptionStruct {\n        uint uid;\n        string encounter_id;\n        string prec_time;\n        address provider;\n        // string medicine;\n\n        string medicine_JSON_Data;\n    }\n   \n    mapping (string => PrescriptionStruct) private PrescriptionData;\n    // string[] public PatientCNIC;\n    address private owner;\n  \n   uint private index = 0;\n    constructor() public {\n        owner = msg.sender;\n    }\n    \n \n    \n    function setPrescriptionrData(string memory _prec_time,string memory enc_id,address provider,string memory _json) public{\n     \n       PrescriptionStruct storage prescription = PrescriptionData[enc_id];\n       \n        // prescription.heathcare_professional.push(heathcare_professional);\n        prescription.prec_time =  _prec_time;\n        prescription.provider = provider;\n        prescription.uid = index;\n        prescription.encounter_id = enc_id;\n\n  \n        if(keccak256(abi.encodePacked(prescription.medicine_JSON_Data)) == keccak256(abi.encodePacked(\"\"))){\n          // return (\"true\")\n            prescription.medicine_JSON_Data = \"[\";\n            prescription.medicine_JSON_Data = string(abi.encodePacked(prescription.medicine_JSON_Data,_json));\n        }else {\n                    //prescription.medicine_JSON_Data = prescription.medicine_JSON_Data +  _json;\n                    //prescription.medicine_JSON_Data = prescription.medicine_JSON_Data.toSlice().concat(_json.toSlice());\n                    prescription.medicine_JSON_Data = string(abi.encodePacked(prescription.medicine_JSON_Data,\",\",_json));\n        }\n        \n        // prescription.medicine_JSON_Data = string(abi.encodePacked(prescription.medicine_JSON_Data));\n    //prescription.medicine_JSON_Data = _json;\n        index = index + 1;\n        // PatientCNIC.push(patientCnic);\n    }\n    function getPrescriptionData(string memory enc_id ) public view returns(string memory){\n            \n        return (string(abi.encodePacked(PrescriptionData[enc_id].medicine_JSON_Data,\"]\")));\n    }\n    \n    \n    // function getIndex() public view returns(uint){\n        \n    //     return (index);\n    // }\n//     function getDataForPrescription(string memory patientCnic,string memory _time,string memory _dr_name, string memory _details) public view returns(string memory){\n//         PrescriptionStruct storage prescription = PrescriptionData[patientCnic];\n//         // return (prescription.encounter_time[0],prescription.uid.length);\n//         for (uint i=0; i < prescription.uid.length; i++) {\n//             // emit LogStudentGrade(studentList[i], studentStructs[studentList[i]].grade);\n//             if(keccak256(abi.encodePacked(string(prescription.encounter_time[i]))) == keccak256(abi.encodePacked(_time))){\n//                  if(keccak256(abi.encodePacked(prescription.heathcare_professional[i])) == keccak256(abi.encodePacked(_dr_name))){\n//                     if(keccak256(abi.encodePacked(prescription.details[i])) == keccak256(abi.encodePacked(_details))){\n//                         return (string(abi.encodePacked(PrescriptionData[patientCnic].medicine_JSON_Data,\"]\")));\n                            \n                    \n//                     }\n//                     // return (prescription.heathcare_professional[i],prescription.uid.length);\n                    \n//                  } \n                       \n//             }\n//         }\n//         // return \"{\\\"result \\\": \\\"No encounter found\\\"}\";\n//         return (\"{\\\"result \\\": \\\"No encounter found\\\"}\");\n//     }\n    \n    \n// //   \n    \n   \n}",
  "sourcePath": "/home/lucifer/FYP-2 /NodeApis/contracts/Prescription.sol",
  "compiler": {
    "name": "solc",
    "version": "0.5.16+commit.9c3226ce.Emscripten.clang"
  },
  "schemaVersion": "3.1.0",
  "updatedAt": "2020-05-18T08:08:52.482Z",
  "networkType": "ethereum",
  "devdoc": {
    "methods": {}
  },
  "userdoc": {
    "methods": {}
  }
}