{
  "contractName": "Provier",
  "abi": [
    {
      "inputs": [],
      "payable": false,
      "stateMutability": "nonpayable",
      "type": "constructor"
    },
    {
      "constant": false,
      "inputs": [
        {
          "internalType": "string",
          "name": "_fname",
          "type": "string"
        },
        {
          "internalType": "string",
          "name": "_email",
          "type": "string"
        },
        {
          "internalType": "string",
          "name": "_password",
          "type": "string"
        },
        {
          "internalType": "string",
          "name": "_prov_type",
          "type": "string"
        },
        {
          "internalType": "string",
          "name": "_prov_address",
          "type": "string"
        },
        {
          "internalType": "string",
          "name": "_city",
          "type": "string"
        },
        {
          "internalType": "string",
          "name": "_country",
          "type": "string"
        },
        {
          "internalType": "string",
          "name": "_signup_time",
          "type": "string"
        },
        {
          "internalType": "address",
          "name": "_address",
          "type": "address"
        }
      ],
      "name": "setProvider",
      "outputs": [],
      "payable": false,
      "stateMutability": "nonpayable",
      "type": "function"
    },
    {
      "constant": true,
      "inputs": [
        {
          "internalType": "string",
          "name": "_address",
          "type": "string"
        },
        {
          "internalType": "string",
          "name": "_password",
          "type": "string"
        }
      ],
      "name": "getProvider",
      "outputs": [
        {
          "internalType": "string",
          "name": "",
          "type": "string"
        },
        {
          "internalType": "string",
          "name": "",
          "type": "string"
        },
        {
          "internalType": "string",
          "name": "",
          "type": "string"
        },
        {
          "internalType": "string",
          "name": "",
          "type": "string"
        },
        {
          "internalType": "address",
          "name": "",
          "type": "address"
        },
        {
          "internalType": "uint256",
          "name": "",
          "type": "uint256"
        }
      ],
      "payable": false,
      "stateMutability": "view",
      "type": "function"
    },
    {
      "constant": true,
      "inputs": [],
      "name": "getAllProvider",
      "outputs": [
        {
          "components": [
            {
              "internalType": "uint256",
              "name": "uid",
              "type": "uint256"
            },
            {
              "internalType": "address",
              "name": "patient_address",
              "type": "address"
            },
            {
              "internalType": "string",
              "name": "fname",
              "type": "string"
            },
            {
              "internalType": "string",
              "name": "password",
              "type": "string"
            },
            {
              "internalType": "string",
              "name": "email",
              "type": "string"
            },
            {
              "internalType": "string",
              "name": "prov_type",
              "type": "string"
            },
            {
              "internalType": "string",
              "name": "prov_address",
              "type": "string"
            },
            {
              "internalType": "string",
              "name": "city",
              "type": "string"
            },
            {
              "internalType": "string",
              "name": "country",
              "type": "string"
            },
            {
              "internalType": "string",
              "name": "signup_time",
              "type": "string"
            }
          ],
          "internalType": "struct Provier.ProviderData[]",
          "name": "",
          "type": "tuple[]"
        }
      ],
      "payable": false,
      "stateMutability": "view",
      "type": "function"
    }
  ],
  "bytecode": "0x60806040526000805534801561001457600080fd5b5033600360006101000a81548173ffffffffffffffffffffffffffffffffffffffff021916908373ffffffffffffffffffffffffffffffffffffffff160217905550611670806100656000396000f3fe608060405234801561001057600080fd5b50600436106100415760003560e01c8063313010c7146100465780634480a27b146100625780636bfd041514610097575b600080fd5b610060600480360361005b9190810190610f49565b6100b5565b005b61007c60048036036100779190810190610edd565b6102aa565b60405161008e96959493929190611420565b60405180910390f35b61009f610732565b6040516100ac91906113fe565b60405180910390f35b60048890806001815401808255809150509060018203906000526020600020016000909192909190915090805190602001906100f2929190610d66565b5050600060018960405161010691906113d0565b908152602001604051809103902090508981600201908051906020019061012e929190610d66565b5088816004019080519060200190610147929190610d66565b5087816003019080519060200190610160929190610d66565b5086816005019080519060200190610179929190610d66565b5085816006019080519060200190610192929190610d66565b50848160070190805190602001906101ab929190610d66565b50838160080190805190602001906101c4929190610d66565b50828160090190805190602001906101dd929190610d66565b506000548160000181905550818160010160006101000a81548173ffffffffffffffffffffffffffffffffffffffff021916908373ffffffffffffffffffffffffffffffffffffffff16021790555060028290806001815401808255809150509060018203906000526020600020016000909192909190916101000a81548173ffffffffffffffffffffffffffffffffffffffff021916908373ffffffffffffffffffffffffffffffffffffffff1602179055505060016000540160008190555050505050505050505050565b6060806060806000806001886040516102c391906113d0565b90815260200160405180910390206003016040516020016102e491906113e7565b604051602081830303815290604052805190602001208760405160200161030b91906113d0565b604051602081830303815290604052805190602001201461033d576040518060200160405280600081525097506103c4565b60018860405161034d91906113d0565b908152602001604051809103902060040160405160200161036e91906113e7565b604051602081830303815290604052805190602001208860405160200161039591906113d0565b60405160208183030381529060405280519060200120146103c3576040518060200160405280600081525097505b5b6001886040516103d491906113d0565b90815260200160405180910390206002016001896040516103f591906113d0565b908152602001604051809103902060040160018a60405161041691906113d0565b908152602001604051809103902060050160018b60405161043791906113d0565b908152602001604051809103902060040160018c60405161045891906113d0565b908152602001604051809103902060010160009054906101000a900473ffffffffffffffffffffffffffffffffffffffff1660018d60405161049a91906113d0565b908152602001604051809103902060000154858054600181600116156101000203166002900480601f0160208091040260200160405190810160405280929190818152602001828054600181600116156101000203166002900480156105415780601f1061051657610100808354040283529160200191610541565b820191906000526020600020905b81548152906001019060200180831161052457829003601f168201915b50505050509550848054600181600116156101000203166002900480601f0160208091040260200160405190810160405280929190818152602001828054600181600116156101000203166002900480156105dd5780601f106105b2576101008083540402835291602001916105dd565b820191906000526020600020905b8154815290600101906020018083116105c057829003601f168201915b50505050509450838054600181600116156101000203166002900480601f0160208091040260200160405190810160405280929190818152602001828054600181600116156101000203166002900480156106795780601f1061064e57610100808354040283529160200191610679565b820191906000526020600020905b81548152906001019060200180831161065c57829003601f168201915b50505050509350828054600181600116156101000203166002900480601f0160208091040260200160405190810160405280929190818152602001828054600181600116156101000203166002900480156107155780601f106106ea57610100808354040283529160200191610715565b820191906000526020600020905b8154815290600101906020018083116106f857829003601f168201915b505050505092509550955095509550955095509295509295509295565b60608060048054905060405190808252806020026020018201604052801561077457816020015b610761610de6565b8152602001906001900390816107595790505b50905060008090505b600480549050811015610d5e5760016004828154811061079957fe5b906000526020600020016040516107b091906113e7565b908152602001604051809103902060405180610140016040529081600082015481526020016001820160009054906101000a900473ffffffffffffffffffffffffffffffffffffffff1673ffffffffffffffffffffffffffffffffffffffff1673ffffffffffffffffffffffffffffffffffffffff168152602001600282018054600181600116156101000203166002900480601f0160208091040260200160405190810160405280929190818152602001828054600181600116156101000203166002900480156108c35780601f10610898576101008083540402835291602001916108c3565b820191906000526020600020905b8154815290600101906020018083116108a657829003601f168201915b50505050508152602001600382018054600181600116156101000203166002900480601f0160208091040260200160405190810160405280929190818152602001828054600181600116156101000203166002900480156109655780601f1061093a57610100808354040283529160200191610965565b820191906000526020600020905b81548152906001019060200180831161094857829003601f168201915b50505050508152602001600482018054600181600116156101000203166002900480601f016020809104026020016040519081016040528092919081815260200182805460018160011615610100020316600290048015610a075780601f106109dc57610100808354040283529160200191610a07565b820191906000526020600020905b8154815290600101906020018083116109ea57829003601f168201915b50505050508152602001600582018054600181600116156101000203166002900480601f016020809104026020016040519081016040528092919081815260200182805460018160011615610100020316600290048015610aa95780601f10610a7e57610100808354040283529160200191610aa9565b820191906000526020600020905b815481529060010190602001808311610a8c57829003601f168201915b50505050508152602001600682018054600181600116156101000203166002900480601f016020809104026020016040519081016040528092919081815260200182805460018160011615610100020316600290048015610b4b5780601f10610b2057610100808354040283529160200191610b4b565b820191906000526020600020905b815481529060010190602001808311610b2e57829003601f168201915b50505050508152602001600782018054600181600116156101000203166002900480601f016020809104026020016040519081016040528092919081815260200182805460018160011615610100020316600290048015610bed5780601f10610bc257610100808354040283529160200191610bed565b820191906000526020600020905b815481529060010190602001808311610bd057829003601f168201915b50505050508152602001600882018054600181600116156101000203166002900480601f016020809104026020016040519081016040528092919081815260200182805460018160011615610100020316600290048015610c8f5780601f10610c6457610100808354040283529160200191610c8f565b820191906000526020600020905b815481529060010190602001808311610c7257829003601f168201915b50505050508152602001600982018054600181600116156101000203166002900480601f016020809104026020016040519081016040528092919081815260200182805460018160011615610100020316600290048015610d315780601f10610d0657610100808354040283529160200191610d31565b820191906000526020600020905b815481529060010190602001808311610d1457829003601f168201915b505050505081525050828281518110610d4657fe5b6020026020010181905250808060010191505061077d565b508091505090565b828054600181600116156101000203166002900490600052602060002090601f016020900481019282601f10610da757805160ff1916838001178555610dd5565b82800160010185558215610dd5579182015b82811115610dd4578251825591602001919060010190610db9565b5b509050610de29190610e4f565b5090565b60405180610140016040528060008152602001600073ffffffffffffffffffffffffffffffffffffffff16815260200160608152602001606081526020016060815260200160608152602001606081526020016060815260200160608152602001606081525090565b610e7191905b80821115610e6d576000816000905550600101610e55565b5090565b90565b600081359050610e8381611616565b92915050565b600082601f830112610e9a57600080fd5b8135610ead610ea8826114ca565b61149d565b91508082526020830160208301858383011115610ec957600080fd5b610ed48382846115c3565b50505092915050565b60008060408385031215610ef057600080fd5b600083013567ffffffffffffffff811115610f0a57600080fd5b610f1685828601610e89565b925050602083013567ffffffffffffffff811115610f3357600080fd5b610f3f85828601610e89565b9150509250929050565b60008060008060008060008060006101208a8c031215610f6857600080fd5b60008a013567ffffffffffffffff811115610f8257600080fd5b610f8e8c828d01610e89565b99505060208a013567ffffffffffffffff811115610fab57600080fd5b610fb78c828d01610e89565b98505060408a013567ffffffffffffffff811115610fd457600080fd5b610fe08c828d01610e89565b97505060608a013567ffffffffffffffff811115610ffd57600080fd5b6110098c828d01610e89565b96505060808a013567ffffffffffffffff81111561102657600080fd5b6110328c828d01610e89565b95505060a08a013567ffffffffffffffff81111561104f57600080fd5b61105b8c828d01610e89565b94505060c08a013567ffffffffffffffff81111561107857600080fd5b6110848c828d01610e89565b93505060e08a013567ffffffffffffffff8111156110a157600080fd5b6110ad8c828d01610e89565b9250506101006110bf8c828d01610e74565b9150509295985092959850929598565b60006110db83836112a7565b905092915050565b6110ec81611587565b82525050565b6110fb81611587565b82525050565b600061110c8261151b565b6111168185611549565b935083602082028501611128856114f6565b8060005b85811015611164578484038952815161114585826110cf565b94506111508361153c565b925060208a0199505060018101905061112c565b50829750879550505050505092915050565b600061118182611531565b61118b818561156b565b935061119b8185602086016115d2565b6111a481611605565b840191505092915050565b60006111ba82611531565b6111c4818561157c565b93506111d48185602086016115d2565b80840191505092915050565b60006111eb82611526565b6111f5818561155a565b93506112058185602086016115d2565b61120e81611605565b840191505092915050565b600081546001811660008114611236576001811461125b5761129f565b607f6002830416611247818761157c565b955060ff198316865280860193505061129f565b60028204611269818761157c565b955061127485611506565b60005b8281101561129657815481890152600182019150602081019050611277565b82880195505050505b505092915050565b6000610140830160008301516112c060008601826113b2565b5060208301516112d360208601826110e3565b50604083015184820360408601526112eb82826111e0565b9150506060830151848203606086015261130582826111e0565b9150506080830151848203608086015261131f82826111e0565b91505060a083015184820360a086015261133982826111e0565b91505060c083015184820360c086015261135382826111e0565b91505060e083015184820360e086015261136d82826111e0565b91505061010083015184820361010086015261138982826111e0565b9150506101208301518482036101208601526113a582826111e0565b9150508091505092915050565b6113bb816115b9565b82525050565b6113ca816115b9565b82525050565b60006113dc82846111af565b915081905092915050565b60006113f38284611219565b915081905092915050565b600060208201905081810360008301526114188184611101565b905092915050565b600060c082019050818103600083015261143a8189611176565b9050818103602083015261144e8188611176565b905081810360408301526114628187611176565b905081810360608301526114768186611176565b905061148560808301856110f2565b61149260a08301846113c1565b979650505050505050565b6000604051905081810181811067ffffffffffffffff821117156114c057600080fd5b8060405250919050565b600067ffffffffffffffff8211156114e157600080fd5b601f19601f8301169050602081019050919050565b6000819050602082019050919050565b60008190508160005260206000209050919050565b600081519050919050565b600081519050919050565b600081519050919050565b6000602082019050919050565b600082825260208201905092915050565b600082825260208201905092915050565b600082825260208201905092915050565b600081905092915050565b600061159282611599565b9050919050565b600073ffffffffffffffffffffffffffffffffffffffff82169050919050565b6000819050919050565b82818337600083830152505050565b60005b838110156115f05780820151818401526020810190506115d5565b838111156115ff576000848401525b50505050565b6000601f19601f8301169050919050565b61161f81611587565b811461162a57600080fd5b5056fea365627a7a72315820feb0eaa8f207d758abd08d08a5c9120024734447bfd6eb6bc5446fd56d9a63926c6578706572696d656e74616cf564736f6c63430005100040",
  "source": "pragma solidity ^0.5.11;\npragma experimental ABIEncoderV2;\n\ncontract Provier {\n    \n    struct ProviderData {\n        uint uid;\n        address patient_address;\n        string fname;\n        string password;\n        string email;\n        string prov_type;\n        string prov_address;\n        string city;\n        string country;\n        string signup_time;\n    }\n    uint private index = 0;\n    mapping  (string => ProviderData) private ProviderList;\n    address[] private ProviderAcnts;\n    address private owner;\n    // store all keys of provider mapping;\n     string [] private keyArray ;\n    \n \n    \n    constructor() public {\n        owner = msg.sender;\n    }\n\n  \n    function setProvider(string memory _fname, string memory _email,string memory _password, string memory _prov_type, string memory _prov_address,  string memory _city, string memory _country, string memory _signup_time, address _address) public{\n        keyArray.push(_email);\n        ProviderData storage provider = ProviderList[_email];\n        provider.fname = _fname;\n\n        provider.email = _email;\n        provider.password = _password;\n        provider.prov_type = _prov_type;\n        provider.prov_address = _prov_address;\n        provider.city = _city;\n        provider.country = _country;\n        provider.signup_time = _signup_time;\n        \n        provider.uid = index;\n        provider.patient_address = _address;\n        ProviderAcnts.push(_address);\n\n        index = index + 1;\n       // emit PatientSettingEvent(_fname,_age);\n    }\n    function getProvider(string memory _address,string memory _password) public view returns(string memory,string memory,string memory,string memory,address,uint){ // here address is email\n        \n      if(keccak256(abi.encodePacked(_password)) != keccak256(abi.encodePacked(ProviderList[_address].password))){\n          // return (\"true\");\n          _address = \"\";\n        } else if(keccak256(abi.encodePacked(_address)) != keccak256(abi.encodePacked(ProviderList[_address].email))){\n          // return (\"true\");\n          _address = \"\";\n        }\n        \n        return (ProviderList[_address].fname,ProviderList[_address].email,ProviderList[_address].prov_type,ProviderList[_address].email,ProviderList[_address].patient_address,ProviderList[_address].uid);\n    }\n    \n    function getAllProvider() public view returns(ProviderData [] memory  ){ // here address is email\n         ProviderData[] memory AllProviders = new ProviderData[](keyArray.length);\n        for (uint i = 0; i < keyArray.length; i++) {\n            AllProviders[i] = ProviderList[keyArray[i]];\n        }\n        return AllProviders;\n        // return (ProviderList[_address].fname,ProviderList[_address].email,ProviderList[_address].prov_type,ProviderList[_address].email,ProviderList[_address].patient_address,ProviderList[_address].uid);\n    }\n    \n    \n     \n    \n}\n",
  "sourcePath": "/home/lucifer/FYP-2 /NodeApis/contracts/Provider.sol",
  "compiler": {
    "name": "solc",
    "version": "0.5.16+commit.9c3226ce.Emscripten.clang"
  },
  "schemaVersion": "3.1.0",
  "updatedAt": "2020-05-18T06:32:11.914Z",
  "devdoc": {
    "methods": {}
  },
  "userdoc": {
    "methods": {}
  }
}